:020000040800F2
:10000000400700208901000809210008CD1C0008D4
:1000100005210008910200083522000800000000B8
:100020000000000000000000000000001121000896
:1000300065050008000000000D21000815210008DA
:10004000A3010008A3010008A3010008A301000800
:10005000A3010008A301000869050008A301000826
:10006000A3010008A3010008A3010008A3010008E0
:10007000A3010008A3010008A3010008A3010008D0
:10008000A3010008A3010008A3010008A3010008C0
:10009000A3010008A3010008A3010008A3010008B0
:1000A000A3010008A3010008A3010008A3010008A0
:1000B000A3010008A3010008A3010008A301000890
:1000C000A3010008A3010008A3010008A301000880
:1000D000A301000829220008A3010008A3010008C9
:1000E000A3010008A3010008A301000800F002F822
:1000F00000F03AF80AA090E8000C82448344AAF188
:100100000107DA4501D100F02FF8AFF2090EBAE885
:100110000F0013F0010F18BFFB1A43F0010318473B
:1001200094220000B4220000103A24BF78C878C19D
:10013000FAD8520724BF30C830C144BF04680C60ED
:10014000704700000023002400250026103A28BF35
:1001500078C1FBD8520728BF30C148BF0B60704739
:100160001FB51FBD10B510BD00F058F81146FFF7C0
:10017000F7FF02F061F800F076F803B4FFF7F2FF42
:1001800003BC00F07DF8000009488047094800479B
:10019000FEE7FEE7FEE7FEE7FEE7FEE7FEE7FEE737
:1001A000FEE7FEE704480549054A064B7047000094
:1001B00019210008ED000008400100204007002040
:1001C00040030020400300204FF0000200B513461A
:1001D00094469646203922BFA0E80C50A0E80C5067
:1001E000B1F12001BFF4F7AF090728BFA0E80C5018
:1001F00048BF0CC05DF804EB890028BF40F8042B11
:1002000008BF704748BF20F8022B11F0804F18BF7D
:1002100000F8012B7047704770477047754600F033
:100220002BF8AE4605006946534620F00700854688
:1002300018B020B5FFF7B6FFBDE820404FF000062C
:100240004FF000074FF000084FF0000BAC46ACE851
:10025000C009ACE8C009ACE8C009ACE8C00921F0AD
:1002600007018D46704710B50446AFF30080204665
:10027000BDE81040FFF781BF004870472000002014
:1002800001491820ABBEFEE72600020070470000BF
:10029000FEE700002DE9F04182B004460898216095
:1002A000A07140F60640C2F61400C4F8070008200A
:1002B000E07232202271637100F0D8F9E07A3825BB
:1002C000002808BF30252E1D012038278DF8046036
:1002D00000F0CCF901208DF805508DF8066000F093
:1002E000C5F9206821794FF47A7801AA04238DF8A2
:1002F0000750CDF8008000F0B9FBE07A38260028DE
:1003000008BF3026351D01208DF8045000F0AEF9ED
:1003100001208DF805608DF8065000F0A7F92068DF
:10032000217901AA04238DF80760CDF8008000F040
:100330009DFB052000F09AF9E07A2825002808BFE7
:10034000302707F1040008BF20258DF804000120A4
:10035000282600F08BF9281D8DF8060001208DF865
:10036000057000F083F92068217901AA04238DF833
:100370000750CDF8008000F079FB052000F076F9F9
:10038000E07A2825002818BF012008BF2025C700D3
:10039000281D8DF80400012000F068F9381D8DF843
:1003A000060001208DF8055000F060F920682179E1
:1003B00001AA04238DF80770CDF8008000F056FBE9
:1003C000052000F053F9E079E27A010120F00F05F1
:1003D00001F10807002A14BF08350701281D8DF810
:1003E0000400012000F042F9381D8DF806000120BC
:1003F0008DF8055000F03AF92068217901AA04230C
:100400008DF80770CDF8008000F030FB207AE27A9A
:10041000010120F00F0501F10807002A14BF08357B
:100420000701281D8DF80400012000F01FF9381D78
:100430008DF8060001208DF8055000F017F92068AE
:10044000217901AA04238DF80770CDF8008000F00F
:100450000DFB607AE27A010120F00F0501F1080737
:10046000002A14BF08350701281D8DF8040001205B
:1004700000F0FCF8381D8DF8060001208DF80550BD
:1004800000F0F4F82068217901AA04238DF80770A0
:10049000CDF8008000F0EAFAA07AE27A010120F0BB
:1004A0000F0501F10807002A14BF08350701281DB0
:1004B0008DF80400012000F0D9F8381D8DF80600F1
:1004C00001208DF8055000F0D1F82068217901AAAB
:1004D00004238DF80770CDF8008000F0C7FAE07AA9
:1004E0001827002818BF01204FEAC00505F10400B5
:1004F00008BF10278DF80400012000F0B7F8381D60
:100500008DF8060001208DF8055000F0AFF8206846
:10051000217901AA04238DF80770CDF8008000F03E
:10052000A5FAE07A00280CBF20260120C500281D6E
:100530008DF80400012000F099F8301D8DF80600B8
:1005400001208DF8055000F091F82068217901AA6A
:1005500004238DF80760CDF8008000F087FA02B020
:10056000BDE8F08170470000012000F0A3B8000052
:10057000014690F82100022816D10868D1E90FC37E
:10058000026822F00E020260026822F0010202609C
:10059000012000FA03F2CCF8042081F821000020A9
:1005A000002281F820207047042088630120002267
:1005B00081F820207047000080B590F821100229B2
:1005C00024D10268116821F00E0111602F211368F7
:1005D000C4F202018A4240F20401C4F2020123F093
:1005E0000103136016DD3023C4F202039A421DD0CA
:1005F0004423C4F202039A421CD05823C4F20203DB
:100600009A421DD14FF4803322E000BF0421816360
:10061000012080BD0823C4F202039A420ED01C239D
:10062000C4F202039A420BD1102311E04FF48073FD
:100630000EE000BF4FF480530AE000BF012307E043
:1006400001F1680C4FF08073624508BF4FF48013CE
:100650000B60012180F82110426B002180F82010EE
:100660000AB190470021084680BD0000B0B504469D
:1006700000F03AF9054640F20000C2F200000078AE
:10068000611C18BF044400BF00F02EF9401BA042BB
:10069000FAD3B0BD012818BF704740F28000C2F203
:1006A000000040F20C012030C2F200010D22642350
:1006B00001F04EBA40F21441C4F201010A6802424C
:1006C00014BF08607047FFF7E5BF00002DE9F04F49
:1006D00082B00E68002E00F0038141F20042C4F2A5
:1006E0000102042340F2004E904208BF03234FF65C
:1006F000FF7CC4F2010E009300240123C1F2100C10
:100700004FF0000A4FF0000949E000BF012704F054
:100710000C030F229A402BEA020207FA03F34FEA76
:100720009A051A4346F82520D1F804B040F20C454A
:100730005FEACB22DEF8082054BF22EA080242EA30
:100740000802C4F20105CEF808202A685FEA8B236C
:1007500054BF22EA080242EA08022A605FEA8B33A9
:10076000DEF8042054BF22EA080242EA08025FEAE7
:10077000CB33CEF80420DEF800204FF0010354BF45
:1007800022EA080242EA0802CEF800200E680AF1C6
:10079000010A36FA0AF204F1040400F0A18003FA17
:1007A0000AF816EA080FF1D04E68664512DC122EE0
:1007B00056D8DFE806F0350B454955555555555582
:1007C000555555555555554D510000BFD1F80C9014
:1007D00046E000BF4FF6FF72C1F2210296420FDCE5
:1007E0000022C1F2110296421AD00022C1F2120276
:1007F000964215D00022C1F22102964210D02FE07D
:100800000022C1F2220296420AD00022C1F2310235
:10081000964205D00022C1F23202964220D100BF9A
:100820008A684AB1012A14BFC0F81480C0F8108049
:100830004FF0080914E000BF4FF0040910E000BFBA
:10084000CA6802F108090BE04FF0000908E000BF98
:10085000CA6802F1040903E0CA6802F10C0900BF8A
:1008600022460646BAF1080F24BF203A04363768FC
:100870000F25954027EA050509FA02F22A4332605E
:10088000CA79D2067FF582AF41F21803C4F202039F
:100890001A68AEF57E7642F001021A601A6802F01C
:1008A00001020192019A2AF0030256F802B040F6C2
:1008B0000002C4F20102904210D040F60042C4F29D
:1008C000010290423FF422AF41F20002C4F2010261
:1008D000009F904208BF022719E700BF002716E7D4
:1008E00002B0BDE8F08F000040F23C10C2F2000000
:1008F0000068704770B5B8B3044690F83D0028B959
:10090000002084F83C00204600F09AF9242084F866
:100910003D002068016821F001010160016841F497
:1009200000410160016821F40041016000F052FBC8
:1009300048F28041C0F21E0140F60013D4F804E0F2
:1009400088424FF00001C0F23D0348F2A16C4FF025
:10095000000238BF01219842C0F2010C38BF0122C9
:10096000E64538BF0A460AB1012070BD4DF68361E5
:10097000C4F21B31A0FB01122168950C4B684FF4A7
:10098000967623F03F0343EA9243754344F6D356E9
:100990004B60C1F262060B6AA5FB0656B50923F04F
:1009A0003F03E64538BF950C6A1C1A430A62CA69C0
:1009B00048F2A0664CF6FF73C0F20106B64522EA83
:1009C00003020BD801384FEA4E03B0FBF3F00130BD
:1009D0006FF31F30042898BF04201EE0A36801387D
:1009E00063B119230EFB03F3B0FBF3F001306FF397
:1009F0001F3078B100F5804008E000BF0EEB4E03D9
:100A0000B0FBF3F001306FF31F3028B100F5004068
:100A100003E000BF012000E001201043C861086826
:100A2000D4E9072320F0C000104318430860886809
:100A300048F2FF3204F10C0690434CCE18431043A9
:100A4000A5698860C86820F0FF0030432843C8606B
:100A5000086840F00100086000202021206484F82C
:100A60003D10206384F83E0070BD00002DE9F04386
:100A700083B01E46174689460446FFF735FF94F8B3
:100A80003D10202920D10546206800BF81698907D3
:100A900016D5FFF729FF411B20681A29F6D3816973
:100AA0008907F3D500202021206384F83D1084F8C5
:100AB0003E00216C41F02001216484F83C0003E0F9
:100AC00094F83C10012903D1022003B0BDE8F08363
:100AD000012184F83C100168C90703D1016841F085
:100AE00001010160016840F2020821F40061016027
:100AF000212184F83D10102184F83E10002121644A
:100B000067626685618DC0F201082185A8F1021136
:100B1000E162E16A0A9E11F5803F18BF01291DD1EB
:100B2000016841F48071016020464FF001110022FC
:100B30003346009501F02CF950B120680068C005DB
:100B400044BF4FF400702064012003B0BDE8F0837F
:100B50002069B0F5804F07D1FE2015E00829DFD0CD
:100B6000216B1229DCD0DFE7062000EAD9102168CA
:100B7000F030086108F10601204632462B4601F0AC
:100B8000F1F90028E0D1FF20216800EA090008619E
:100B90002046414632462B4601F0E4F90028D3D1E5
:100BA00000200290206841690291806902900298B9
:100BB00006E000BF204631462A4601F089F818BBFE
:100BC000208D68B3204631462A4601F03BFAD8B959
:100BD000606A2168024612F8013B0B616262628D15
:100BE000013A6285228D531E23854F697F07E1D527
:100BF0001B04DFD0437802300B616062608D0138E6
:100C00006085901E2085D5E7206C04289CD1206843
:100C1000016841F400710160012003B0BDE8F08378
:100C20002068016841F400710160202084F83D00D3
:100C3000002084F83E0084F83C0003B0BDE8F08357
:100C400010B586B045F200410068C4F200010022F0
:100C50008842049202D006B010BD00BF41F21804D1
:100C6000C4F20204206840F008002060206800F010
:100C7000080001900198C0200290122003900320E8
:100C8000059001F5384002A9FFF720FD606840F4A7
:100C900000106060606800F400100190019806B0D8
:100CA00010BD000040F2000040F23C11C2F2000012
:100CB000C2F2000100780A68104408607047000022
:100CC00080B542F20000C4F20200016841F0100158
:100CD0000160032000F08EF80F2000F005F800F00E
:100CE00027F8002080BD000070B540F20006C2F277
:100CF000000640F208013278C2F200014FF47A7324
:100D00000968B3FBF2F20446B1FBF2F1084600F0C9
:100D100063FB0F2C4FF0010508D838B94FF0FF30B6
:100D200021460022002500F039F87460284670BD85
:100D300082B041F21800C4F202000168022241F0C0
:100D400001010160016801F001010191019941680F
:100D500041F080514160406800F080500090009860
:100D60000420C4F20100016862F31A61016002B05C
:100D700070470000002848BF7047C1B200F01F0054
:100D8000012202FA00F04EF20012CEF2000242EA14
:100D9000D10121F0030108607047000010B54EF644
:100DA0000C5CCEF2000CDCF80030C3F3022E8EF0A7
:100DB0000704042C28BF0424BEF103034FF0FF3EB8
:100DC0000EFA04F438BF0023A14399400EFA03F34E
:100DD0009A43114300F00F0200F160430901043A05
:100DE00003F564436244002848BF02F10C03197004
:100DF00010BD00004EF60C51CEF200010A684FF60D
:100E0000FF031A4060F30A2242F0806040F0FD7058
:100E1000086070472DE9F04381B0002800F085801C
:100E200042F20008C4F202080446D8F800000D4659
:100E300000F0070088420CD2D8F8000020F007002C
:100E40002843C8F80000D8F8000000F00700A842C6
:100E50006BD1206841F204098107C4F2020917D559
:100E6000410705D5D9F8001041F4E061C9F8001038
:100E7000010705D5D9F8001041F46051C9F80010F8
:100E8000D9F80010A26821F0F0011143C9F8001050
:100E9000C00741D1D8F8000000F00700A8420CD9E3
:100EA000D8F8000020F007002843C8F80000D8F860
:100EB000000000F00700A84237D12068410707D59D
:100EC000D9F80010E26821F4E0611143C9F800107C
:100ED000000708D5D9F80000216920F4605040EAE5
:100EE000C100C9F80000D9F8002002F00C00082861
:100EF00041F20020C0F27A0050D142F2A433C2F392
:100F00008341C0F60003595CD2033BD440F6001085
:100F1000C0F23D00484341E0606802280AD0012841
:100F20002AD159F8041C890308D4012001B0BDE876
:100F3000F08300BF59F8041C8901F6D5D9F80010D8
:100F400021F003010843C9F80000FFF7CDFC064675
:100F500041F28837D9F80000616800F00C00B0EB6E
:100F6000810F97D0FFF7C0FC801BB842F2D9032055
:100F700001B0BDE8F08300BF59F8041C8907D4D53F
:100F8000DCE700BFD9F8002042F2A233C2F34042AE
:100F9000C0F600039A5C4843B0FBF2F0D9F80010A9
:100FA00042F28A32C1F30311C0F60002515C40F2F2
:100FB000080220FA01F140F20400C2F200000068C9
:100FC000C2F200021160FFF78FFE002001B0BDE801
:100FD000F083000040F2080041F20401C2F2000078
:100FE000C4F202010068096842F29A32C1F3022198
:100FF000C0F60002515CC8407047000040F2080093
:1010000041F20401C2F20000C4F202010068096862
:1010100042F29A32C1F3C221C0F60002515CC840CC
:10102000704700002DE9F04182B0002868D00446E6
:10103000007841F20006C007C4F2020625D07068AD
:1010400000F00C0004281BD0706800F00C00082889
:1010500002D17068C00313D46068002800F0688172
:10106000B0F5A02F00F07C81B0F5803F00F07C81CE
:10107000306820F480303060306820F4802076E1E1
:101080003068800301D56068D0B32078800718D518
:10109000706810F00C0F07D0706800F00C00082882
:1010A0006ED17068C0036BD43068800702D52069A8
:1010B000012825D13068616920F0F80040EAC100BC
:1010C0003060207800071FD42078400732D4E569CB
:1010D00095B1706800F00C00082840F08F80012D59
:1010E0000ED07068216A00F480328A4208D1616AA9
:1010F00000F47010884203D1002002B0BDE8F081F6
:10110000012002B0BDE8F081A069002862D0002073
:10111000C4F242200121C0F88014FFF7E5FB054628
:10112000706A800700F18C80FFF7DEFB401B02280D
:10113000F6D92AE1F06910F0805808D1F06940F042
:101140008050F061F06900F080500090009847F204
:101150000007C4F200073868C00529D4386840F495
:1011600080703860FFF7C0FB054600BF3868C005D7
:101170001ED4FFF7B9FB401B6428F7D905E100BF77
:101180002069002840F20000C4F2422000F0828072
:1011900001210160FFF7A8FB054600BF306880070A
:1011A0003FF588AFFFF7A0FB401B0228F6D9ECE023
:1011B000E068002800F08080052800F09780012872
:1011C00000F09880306A20F001003062306A20F030
:1011D000040092E00020C4F242200021C0F88014F4
:1011E000FFF782FB054600BF706A80077FF56CAF92
:1011F000FFF77AFB401B0228F6D9C6E00027C4F2AD
:10120000422700203866FFF76FFB022D05460BD101
:101210003068800140F1BE80FFF766FB401B02286A
:101220004FF00300F4D968E7306880017FF564AFC0
:10123000FFF75AFB401B02284FF00300F4D95CE78C
:1012400040F20800C2F20000006844F6D351C1F237
:101250006201A0FB0101480A019000BF00BF019894
:10126000411E002801913FF42FAF00BF0198411E9D
:10127000002801913FF428AF00BF0198411E0028CB
:1012800001913FF421AF00BF0198411E0028019158
:10129000E4D119E700210160FFF726FB054600BFF6
:1012A000306880077FF50DAFFFF71EFB401B02285B
:1012B0004FF00300F4D920E7306A20F001003062DB
:1012C000306A20F004003062FFF70EFB054641F261
:1012D000883700BF306A800720D5FFF705FB401B29
:1012E000B8424FF00300F5D907E700BF306A40F07D
:1012F00004003062306A40F001003062FFF7F4FA17
:10130000054641F2883700BF306A800706D4FFF7F0
:10131000EBFA401BB842F7D937E000BFB8F1000F35
:101320007FF4D5AEF06920F08050F061CFE600BFC9
:10133000306820F480303060306820F480203060E5
:10134000FFF7D2FA054600BF306880037FF59DAEF7
:10135000FFF7CAFA401B64284FF00300F4D9CCE62B
:10136000306840F480203060306840F48030306075
:10137000FFF7BAFA054600BF306880033FF585AE37
:10138000FFF7B2FA401B6428F6D9032002B0BDE88B
:10139000F08100BF206AB0F5803F05D17168A26876
:1013A00021F40031114371607168626A21F4741193
:1013B00011430843706001203866FFF795FA044630
:1013C000306880013FF598AEFFF78EFA001B0228C7
:1013D0004FF00300F4D990E6411E0020B0EB116FEE
:1013E0001CBF012070474EF21002CEF20002516085
:1013F0004EF62351CEF20001F0230B7007219060CE
:10140000116070477047000070470000B0B582B0AF
:10141000044600680168C368426901F02F05202D69
:1014200003F0200506D12DB1204602B0BDE8B04042
:1014300000F07ABE5FEA017C1EBF02F0010E03F4E9
:10144000907212EB0E0253D1226B012A05D111F0DA
:10145000100218BF13F0100236D10A0622D513F07D
:1014600080021FD094F8411021293FD1A168B1F525
:10147000805F03D12169002900F07082216A4A1C33
:10148000226209784160E18C01390A04E1842DD19E
:10149000C16821F08001C160C16841F04001C160B4
:1014A00002B0B0BD490621D513F040011ED0C1687D
:1014B00021F04001C1602021204684F8411002B093
:1014C000BDE8B04000F000BC00210191016801912D
:1014D0004168019101994069400613D4A08DE18DC6
:1014E000E28D002A18BF884240F0BA8102B0B0BD38
:1014F000CA0718BF13F4807240F0B6804A0700F1A3
:10150000B980BEE0E06B016849688AB2002AEDD07C
:10151000A38D9A42EAD2E1858069202800F09C8060
:10152000206850E8030F216820F4807041E803022E
:10153000DAB1206850E8030F216820F4807041E898
:10154000030292B1206850E8030F216820F48070F4
:1015500041E803024AB1206850E8030F216820F4F3
:10156000807041E80302002ADAD1206850E8050FB4
:10157000216820F0010041E80502DAB1206850E856
:10158000050F216820F0010041E8050292B12068B2
:1015900050E8050F216820F0010041E805024AB13A
:1015A000206850E8050F216820F0010041E805029D
:1015B000002ADAD1206850E8050F216820F04000A9
:1015C00041E80502DAB1206850E8050F216820F0F3
:1015D000400041E8050292B1206850E8050F2168FB
:1015E00020F0400041E805024AB1206850E8050FAC
:1015F000216820F0400041E80502002ADAD12020CD
:1016000084F8420000202063206850E8030F21681E
:1016100020F0100041E80302DAB1206850E8030F1F
:10162000216820F0100041E8030292B1206850E8E0
:10163000030F216820F0100041E803024AB120683E
:1016400050E8030F216820F0100041E80302002A4F
:10165000DAD1E06BFEF78CFF02206063A08DE18D94
:10166000401A81B2204674E1626C42F00102626469
:101670004A0706D5BEF1000F03D0626C42F00202A9
:1016800062648A0706D5BEF1000F03D0626C42F097
:1016900004026264BCF1000F09D545EA0E02B2FAF9
:1016A00082F2520903D1626C42F008026264626CF9
:1016B000002A3FF41BAF11F0200118BF002D03D00A
:1016C000204600F031FD20684069616C00F0400068
:1016D00001F00801401800F0B58000BF206850E814
:1016E000030F216820F4907041E80302BAB3206828
:1016F00050E8030F216820F4907041E8030272B3B0
:10170000206850E8030F216820F4907041E803023C
:101710002AB3206850E8030F216820F4907041E854
:101720000302002ADAD11AE0206850E8050F216888
:1017300020F0010041E80502DAB1206850E8050F09
:10174000216820F0010041E8050292B1206850E8CC
:10175000050F216820F0010041E805024AB1206828
:1017600050E8050F216820F0010041E80502002A39
:10177000DAD1206B012824D1206850E8030F2168BA
:1017800020F0100041E80302DAB1206850E8030FAE
:10179000216820F0100041E8030292B1206850E86F
:1017A000030F216820F0100041E803024AB12068CD
:1017B00050E8030F216820F0100041E80302002ADE
:1017C000DAD1202084F8420000202063206840699C
:1017D00040063FD5206850E8050F216820F0400002
:1017E00041E80502DAB1206850E8050F216820F0D1
:1017F000400041E8050292B1206850E8050F2168D9
:1018000020F0400041E805024AB1206850E8050F89
:10181000216820F0400041E80502002ADAD1E06B9F
:10182000C0B142F21D11C0F600014163FEF7C4FED3
:1018300000283FF45BAEE06B416B02B0BDE8B04006
:10184000084700BF2046FFF7DFFD0020606402B0BC
:10185000B0BD00BF204602B0BDE8B040FFF7D4BD28
:10186000401A216851E8031F226821F4907142E870
:101870000313DBB1216851E8031F226821F4907142
:1018800042E8031393B1216851E8031F226821F451
:10189000907142E803134BB1216851E8031F22689D
:1018A00021F4907142E80313002BDAD1216851E84A
:1018B000051F226821F0010142E80513DBB1216810
:1018C00051E8051F226821F0010142E8051393B198
:1018D000216851E8051F226821F0010142E8051343
:1018E0004BB1216851E8051F226821F0010142E84F
:1018F0000513002BDAD1202184F842100021216346
:10190000216851E8031F226821F0100142E8031307
:10191000DBB1216851E8031F226821F0100142E881
:10192000031393B1216851E8031F226821F01001CD
:1019300042E803134BB1216851E8031F226821F0EC
:10194000100142E80313002BDAD1022281B22046B3
:10195000626302B0BDE8B040FFF754BD216A31F8C0
:10196000022B6FF35F22426021628CE5002804BFE6
:101970000120704710B5044690F8410028B90020B6
:1019800084F84000204600F063F8242084F84100E9
:101990002068D4E90212C36823F40053C3600369CA
:1019A00023F440531A430261D4E904231143C2686B
:1019B000194341F20C639A431143C1604169A26922
:1019C00021F44071114343F60002C4F20102904237
:1019D000416103D0FFF7FEFA02E000BFFFF70EFB04
:1019E0006268192148439100B0FBF1F048F21F51A1
:1019F000C5F2EB11A0FB01235A094FF69C73C0F608
:101A0000FF7302FB0300322303EB0010A0FB010174
:101A1000F02303EA5113206803EB0212C1F34311D0
:101A200011448160016921F490410161416921F013
:101A30002A014161C16841F40051C16000202021A8
:101A4000606484F8411084F84210606310BD0000A7
:101A500070B586B040F60004C4F20104006804F5D5
:101A6000405100268842049602D006B070BD00BFE7
:101A700041F21800C4F20200016802AD41F4804155
:101A80000160016801F4804101910199016841F010
:101A9000040101600068294600F0040001900198EB
:101AA0004FF400700290022003900320059020461E
:101AB000FEF70CFE4FF48060CDE902062046294671
:101AC0000496FEF703FE252001210022FFF766F9A8
:101AD0002520FFF74FF906B070BD000090F84230A6
:101AE000202B1CBF0220704700294FF0010318BFB4
:101AF000002A01D118467047002303638162222126
:101B00008285C285436480F842100169006819B17A
:101B1000C16841F48071C1604169002341F0010155
:101B20004161C16841F02001C16018467047000062
:101B300040F28001C2F2000100680A6A904218BFB8
:101B4000704701F120000C311422FFF7C7BF0000DD
:101B50002DE9F041044690F8410020281CBF0220E6
:101B6000BDE8F0810D4600294FF0010000F0AA8089
:101B70001646002A08BFBDE8F081002060642120DD
:101B8000984684F84100FEF7AFFEA684E684A1687B
:101B90000646B1F5805F02D12069002862D02F4649
:101BA0000025E08C002861D018F1010018D0B8F1B0
:101BB000000F37D1216808E017F8010B4860E08C6E
:101BC0000138E084E08C002851D00868000673D505
:101BD000002FF1D135F8020B00276FF35F20EDE7FE
:101BE000216802E00868000609D40868000606D4E7
:101BF000086800065CBF08685FEA0060F2D51FB1A4
:101C000017F8010B05E000BF35F8020B00276FF352
:101C10005F204860E08C0138E084E08C0028E4D14B
:101C200025E000BF216800BF0868000608D4FEF761
:101C30005BFE801B404541D82168C868F4E700BFBF
:101C400017B117F8010B04E035F8020B00276FF30A
:101C50005F204860E08C0138E084E08C0028E3D10C
:101C600005E000BF0027E08C00289DD121680868AE
:101C700040061FD4B8F1000F1ED018F101000FD19B
:101C80000868400616D40868400613D40868400661
:101C900010D4086840064FF00000F1D50FE000BFF7
:101CA000FEF722FE801B404508D82068C168006806
:101CB0004006F5D5002002E0FEF716FE03202021A5
:101CC00084F84110BDE8F08170470000FEE7000095
:101CD00070B50368044653F8140F400711D40E463C
:101CE000481C29D086BB00BF1868400527D4FEF7E2
:101CF000FBFD236853F8140F400739D518684007D7
:101D0000F2D5002070BD00BF18684007F9D41868EC
:101D1000400514D418684007F3D4186840050ED461
:101D200018684007EDD41868400508D418684007C3
:101D30004FF0000048BF70BD18684005E4D56FF44F
:101D400080601860042014E0154603E053F8140F77
:101D50004007D6D418684005F1D4FEF7C5FD401BF6
:101D60002368B042F2D958694007EFD4202000E040
:101D7000202000212022216384F83D2084F83E1099
:101D8000226C10432064012084F83C1070BD0000D8
:101D90002DE9F041054600681E46144601F47F0215
:101DA00001338FB242D0DDF81880B2F5803F40F0A9
:101DB000878040693840C01BB0FA80F04009A042DB
:101DC00040F0C8804EB924E040693840C01BB0FAEA
:101DD00080F04009A04240F0BD80FEF785FDA0EBF9
:101DE00008012868B142EFD941693940C91BB1FAED
:101DF00081F14909A142E7D19BE000BF4069384029
:101E0000C01BB0FA80F04009A0424FF0000040F043
:101E1000A680FEF769FD286841693940C91BB1FAFF
:101E200081F14909A142E9D183E000BFB2F5803FC9
:101E300024D100BF41693940C91BB1FA81F1490978
:101E4000A14240F0878041693940C91BB1FA81F154
:101E50004909A14240F07E8041693940C91BB1FA6D
:101E600081F14909A14275D141693940C91BB1FAD3
:101E700081F14909A142DDD06CE000BF81693940A0
:101E8000C91BB1FA81F14909A14263D18169394085
:101E9000C91BB1FA81F14909A1425BD1816939407D
:101EA000C91BB1FA81F14909A14253D18169394075
:101EB000C91BB1FA81F14909A142DFD04AE000BF54
:101EC00080693840C01BB0FA80F04009A04241D17F
:101ED00046B923E080693840C01BB0FA80F0400961
:101EE000A0423BD1FEF700FDA0EB08012868B142FB
:101EF000F0D981693940C91BB1FA81F14909A14280
:101F0000E8D116E080693840C01BB0FA80F0400983
:101F1000A0424FF0000018BFBDE8F081FEF7E4FCDE
:101F2000286881693940C91BB1FA81F14909A14288
:101F3000E8D100202021286385F83D1085F83E0077
:101F4000296C41F02001296485F83C000120BDE89E
:101F5000F08100BF0020BDE8F08100BF0020BDE897
:101F6000F0810000F0B581B0044600681D46436969
:101F70008FB203EA0701B94202D1002001B0F0BDDF
:101F800041691646013201F4806125D0002940D113
:101F9000CEB100BFFEF7A8FC411B2068B14203D9B7
:101FA00041693940B9424BD141693940B942E4D025
:101FB00041694905EED52CE041693940B942DCD090
:101FC0004169490525D4FEF78FFC206841693940F5
:101FD000B942F1D0202024E0D9B941693940B94251
:101FE000CBD04169490514D441693940B942C4D0C4
:101FF000416949050DD441693940B942BDD04169B3
:10200000490506D441693940B942B6D0416949050C
:10201000E3D5016841F4007101606FF480614161B2
:10202000042000212022216384F83D2084F83E1002
:10203000226C1043206484F83C10012001B0F0BDF4
:102040002020EEE770B50368044653F8140F00062D
:1020500011D40E46481C29D086BB00BF1868400525
:1020600027D4FEF741FC236853F8140F000639D536
:1020700018680006F2D5002070BD00BF1868000681
:10208000F9D41868400514D418680006F3D4186809
:1020900040050ED418680006EDD41868400508D431
:1020A000186800064FF0000048BF70BD1868400572
:1020B000E4D56FF480601860042014E0154603E056
:1020C00053F8140F0006D6D418684005F1D4FEF773
:1020D0000BFC401B2368B042F2D958690006EFD4CC
:1020E000202000E0202000212022216384F83D20D0
:1020F00084F83E10226C10432064012084F83C10C8
:1021000070BD0000FEE70000FEE700007047000021
:1021100070470000FEF7C6BD70470000406A00210E
:10212000C185C184FFF770B981B090F842102229AF
:1021300021D183680246B3F5805F09D152F8281F88
:1021400052F8183C002B63D003685B680AE000BFBC
:1021500052F8281F13B90369002BF5D003685B6898
:1021600003F07F030B70116801311160C18D0139DB
:102170000A04C18502D001B0704700BF0168CA6877
:1021800022F02002CA60CA6822F48072CA604A69DA
:1021900022F001024A61202180F8421000214163AF
:1021A000026B012A3CD10163016851E8031F0268F8
:1021B00021F0100142E80313DBB1016851E8031F6D
:1021C000026821F0100142E8031393B1016851E85D
:1021D000031F026821F0100142E803134BB10168AC
:1021E00051E8031F026821F0100142E80313002B9D
:1021F000DAD101680A68D20606D5002200920A6880
:102200000092496800910099818D01B0FFF7FAB8FA
:10221000026852686FF35F2221F8022B8162A5E702
:1022200001B0FFF785BC000040F2A000C2F2000040
:10223000FFF7ECB8FEE7000090B0FEF741FD40F27A
:10224000800840F2E805C2F20008C2F20005022749
:10225000404629464E22102300971024FEF71AF814
:1022600006AE301D2421FDF7AFFF01200697CDE912
:102270000A04002730460D97FEF7D4FE20B1EFF395
:10228000108072B6FEE700BF0F20CDE9010701A85C
:102290000021CDE903770597FEF7BCFD20B1EFF3F0
:1022A000108072B6FEE700BF002641F218000996C2
:1022B000C4F20200016845F2004741F020010160CC
:1022C0000168C4F2000701F0200101910199016841
:1022D00041F008010160016801F0080101910199D4
:1022E000016841F004010160006806A900F00400E3
:1022F00001900198012006900020C1F21100CDE963
:10230000070607F53840FEF7E1F906200221002212
:10231000FEF744FD0620FEF72DFD07F5644140461B
:1023200040F8201F4FF4E1310C22C0E90116C0E94A
:102330000366C0E90526C661FFF718FB20B1EFF37D
:10234000108072B6FEE700BF48F2A060C0F2010044
:102350004FF48041C5E900702846C5E90266C5E929
:102360000416C5E906662E62FEF7C4FA20B1EFF343
:10237000108072B6FEE700BF08F1200008F10C01E2
:102380001422FFF7ABFB00BFFEE7000000000000D7
:102390000000010203040607080900000000010212
:1023A0000304010202030405060708090A0B0C0DC9
:1023B0000E0F1010D823000800000020200000009D
:1023C00028010008F8230008200000202007000052
:1023D000440100080000000001000000100000009F
:1023E00000127A0048656C6C6F20576F726C640A3B
:0823F0000000000000000000E5
:04000005080000ED02
:00000001FF
