:020000040800F2
:10000000F8060020A10100084D2700080120000883
:1000100049270008610A0008612700080000000065
:10002000000000000000000000000000552700084C
:10003000350E00080000000051270008592700086D
:10004000BB010008BB010008BB010008BB010008A0
:10005000BB010008BB010008BB010008BB01000890
:10006000BB010008BB010008BB010008BB01000880
:10007000BB010008BB010008BB010008BB01000870
:10008000BB010008BB010008BB010008BB01000860
:10009000BB010008BB010008BB010008BB01000850
:1000A000BB010008BB010008BB010008BB01000840
:1000B000BB010008BB010008BB010008BB01000830
:1000C000BB010008BB010008BB010008BB01000820
:1000D000BB010008BB010008BB010008BB01000810
:1000E000BB010008BB010008BB01000800F002F8DA
:1000F00000F047F80AA090E8000C82448344AAF17B
:100100000107DA4501D100F03CF8AFF2090EBAE878
:100110000F0013F0010F18BFFB1A43F0010318473B
:100120003838000058380000103A24BF78C878C129
:10013000FAD8520724BF30C830C144BF04680C60ED
:10014000704700000023002400250026103A28BF35
:1001500078C1FBD8520728BF30C148BF0B60704739
:10016000662903F09583002070471FB500F002FB5D
:1001700004000020002103F05DF8E0601FBD10B511
:1001800010BD00F0F7FB1146FFF7EFFF02F0EAFAAF
:1001900000F015FC03B4FFF7F2FF03BC00F058FCBD
:1001A0000948804709480047FEE7FEE7FEE7FEE70B
:1001B000FEE7FEE7FEE7FEE7FEE7FEE70448054947
:1001C000054A064B704700005D270008ED00000857
:1001D000F8000020F8060020F8020020F8020020B5
:1001E0000FB41CB5074B06AA7B44694600900598DE
:1001F00000F0A7FA0020694600F0B6FA1CBC5DF8D2
:1002000014FB00007D0500002DE9F0474FF0000AC7
:1002100089460446C0F820A02046E16888470028A7
:1002200076D0252806D0D4E901219047206A401CC9
:100230002062F1E7E168204600258847C4F81CA049
:1002400006460027C4F818A02A2E09D0304602F02E
:10025000E9FF38B304EB8708303EC8F8186019E0AE
:1002600059F8041B204604EB87029161E168884736
:10027000012F064618D1E069002820DA25F0200574
:100280001DE0D8F8180000EB800006EB4000303885
:10029000C8F818002046E1688847064602F0C2FF09
:1002A0000028EED1012F0AD02E2E08D12046E16879
:1002B00088477F1C0646022F45F02005C4DBA06955
:1002C000002803DA404245F00105A061E80701D0AB
:1002D00025F01005B6B1A6F14100192802D8203644
:1002E00045F400654A463146204625604D46FFF7F5
:1002F00037FF58B1012806D0ED1D25F0070000F1A9
:10030000080989E704E005F1040985E730468AE732
:10031000206ABDE8F0877047704770472DE9FF4FAE
:100320000C461E464FF0FF378BB0D2E90001DDF8D6
:1003300060800A908A46C1F30A5505B93D460021FE
:1003400008464FF00000BAF1000F00F4400005DA53
:1003500000EB80004FF4400101EA50004FEA905951
:10036000B9F1010F00DDB9460A9850EA4A000ED0F3
:1003700044F61050A5F2FF3545432F14B8F1000F95
:100380001ED07542291E1EDDC9F100021CE0B8F125
:10039000010F4FF0000001D0302103E0F24305E0EF
:1003A0002154401CB042FBDB304600220021215486
:1003B0000B99C1F80880C1E900200FB0BDE8F08FAB
:1003C000BD1B6D1CDEE74A4600DA694206A800F054
:1003D0005BFA06AB93E8070003AB83E807005046DF
:1003E0000A9902F043FB8DE80700A0F500501F3882
:1003F00000900398002D0ADD42F21F014A4608448E
:10040000002303A90390684602F0ACFD09E0A0F5C3
:1004100000504A461F38002303A90390684602F0A3
:10042000B6FD8DE807000004000C03D04FF0FF304C
:10043000410800E01046B8F1000F03D000220092FE
:1004400015461EE0751E05D400F098F9303262554D
:100450006D1EF9D5B3460122084302D000227F1C4D
:1004600004E02078302801D100227F1E002A09975D
:1004700084D01DE0112D07DA00F080F9303262558A
:100480006D1C50EA0102F5D1084302D00098C8B1B2
:100490000EE00021681E05E0235C625C6354225478
:1004A000401E491C8142F7DBAB46A81B401E099049
:1004B000002004F80B000B98099AC0F80880C0E9E6
:1004C000002B7AE711264FF0000857E72DE9F04F8F
:1004D00088460446D21D22F0070191B0D1E90001FF
:1004E000CDE90A0102F08AFE02460B98C00F01D046
:1004F0002D2007E02068810701D52B2002E0202174
:1005000001EAC000032A099001D0072A05DB03464F
:100510004146204600F078F90BE12078800601D5AD
:10052000E06900E00620B8F1650F814606D0B8F119
:10053000660F18D0B8F1670F70D131E00020B9F123
:10054000110F009001DB112301E009F101030AAA58
:1005500001A90CA8FFF7E2FEDDE90C70002609F105
:100560000105834647E001204B4600904FF00047CD
:100570000AAA01A90CA8FFF7D1FEDDE90DB00C997C
:100580005D46002610B909F101000D18B9EB050010
:1005900003D4C0F1FF3609F10105A5EB09002BE0FA
:1005A000B9F1010F01DA4FF001090020B9F1110F83
:1005B0000090484601DD112300E003460AAA01A984
:1005C0000CA8FFF7ABFEDDE90C704D460026834614
:1005D000207800070AD4AB4500DA5D4601A8012D5A
:1005E00004DD411911F8011C302907D04F4502DA0A
:1005F00017F1040F04DA012082460FE06D1EEEE7CA
:10060000002F02DCED1B3E4403E0781CA84200DD15
:100610007D1CB81B00F1010A4FF00047207800074D
:1006200003D4AA4501DB4FF0FF3A0021B7F1004F98
:100630000DF143088DF8431024D002202B23002F06
:1006400001DA7F422D230A21021EA0F1010000DC05
:100650005FB197FBF1FC97FBF1F201FB1C7C1746A5
:100660000CF1300C08F801CDEEE7A8F101000370A1
:100670002188090501D5452100E06521A0F1010887
:1006800000F8011C09980FA9A1EB0807FF1D00B194
:100690000120411901EBEA70A1693844081A401E93
:1006A000A0612078C00602D42046AFF300800998EC
:1006B00028B1D4E901219047206A401C20622078AB
:1006C000C00622D52046AFF300801EE0002E04DBDA
:1006D000B34502DD01A8805D00E03020D4E90121AE
:1006E0009047206A401C2062761CAAF101005FEA54
:1006F000000A0AD100F03EF8C0680168405CD4E905
:1007000001219047206A401C2062281EA5F10105A6
:10071000DCDC07E0D4E9012118F8010B9047206ADE
:10072000401C2062381EA7F10107F3DC2046AFF31E
:100730000080032011B041E601694A1C026108787B
:10074000704700B58FB0CDE9013100210591054911
:100750007944CDE9031011466846FFF755FD0FB007
:1007600000BD0000E5FFFFFF0A6802F8010B0A6008
:1007700070470000004870473000002030B5B0F1ED
:100780000A0271F100034FEA900E4EEA817EB0EB4F
:100790000E0061EB91014FEA101E4EEA017E10EB54
:1007A0000E0041EB11114FEA102E4EEA016E10EBD4
:1007B0000E0041EB11214FEA104E4EEA014E10EBB4
:1007C0000E0041EB1141401841F100014FEAD00009
:1007D00040EA41704FEAD1014FEA810444EA907443
:1007E00010EB800544EB01046D1944EB0404521B2B
:1007F000A3414FF0000348BF0A3200D530BD401C72
:1008000041F1000130BD00002DE9F0411F460446D2
:1008100003260168072A01F4006004DB08B116A56D
:1008200005E016A503E008B115A500E015A521F027
:1008300010002060A069C01EA0610FB1401EA06121
:100840002046AFF300804FB1D4E9012138469047EC
:10085000206A401C2062C01C206206E0206AFAE781
:10086000D4E9012115F8010B9047761EF8D22046F5
:10087000AFF30080BDE8F0814E414E006E616E0026
:10088000494E4600696E66002DE9F04781461646DE
:100890008AB0354878440DC88DE80D003248784458
:1008A000801C03AC0DC884E80D0041F69B30084461
:1008B000372190FBF1F290FBF1F5A5F1800501FBEA
:1008C00012041B3C02D56442012000E00020DFF846
:1008D00098A080460027FA44AAF1BE0A0EE0E0077D
:1008E0000AD03246684607EB470101230AEB810133
:1008F00002F04DFB8DE8070064107F1C002CEED148
:10090000194F7F44AE3F19E0E80715D007EB0410FC
:100910000DF1180A90E80E008AE80E00C068F04257
:1009200001D1981908903246012306A903A802F0C4
:100930002EFB03AB83E807006D10641C002DE3D190
:100940004FF0010332466946B8F1000F03A802D008
:1009500002F008FB01E002F01AFBC9E90001C9F846
:1009600008200AB0BDE8F0877830000000487047E2
:10097000100000207546FFF7F9FFAE4605006946F6
:10098000534620F00700854618B020B5FFF716FC47
:10099000BDE820404FF000064FF000074FF0000880
:1009A0004FF0000BAC46ACE8C009ACE8C009ACE8BD
:1009B000C009ACE8C00921F007018D46704710B5A9
:1009C0000446AFF300802046BDE81040FFF7E2BBCD
:1009D0004FF0013C50F8042B51F8043B9A4221D1CE
:1009E000A2EB0C03934313EACC1317D150F8042B5A
:1009F00051F8043B9A4215D1A2EB0C03934313EA3E
:100A0000CC130BD150F8042B51F8043B9A4209D176
:100A1000A2EB0C03934313EACC13DBD04FF000009E
:100A2000704700BFD01A01BAB1FA81F101F0180184
:100A300022FA01F0CB40DBB2C0B2C01AC1F12001F2
:100A40002CFA01F3D11A914311EAC311E6D1704790
:100A500001491820ABBEFEE72600020070470000E7
:100A6000FEE700002DE9F04182B0044608982160BD
:100A7000A07140F60640C2F61400C4F80700082032
:100A8000E07232202271637100F0D6F9E07A3825E5
:100A9000002808BF30252E1D012038278DF804605E
:100AA00000F0CAF901208DF805508DF8066000F0BD
:100AB000C3F9206821794FF47A7801AA04238DF8CC
:100AC0000750CDF8008000F09BFBE07A3826002824
:100AD00008BF3026351D01208DF8045000F0ACF918
:100AE00001208DF805608DF8065000F0A5F920680A
:100AF000217901AA04238DF80760CDF8008000F069
:100B00007FFB052000F098F9E07A2825002808BF2F
:100B1000302707F1040008BF20258DF804000120CC
:100B2000282600F089F9281D8DF8060001208DF88F
:100B3000057000F081F92068217901AA04238DF85D
:100B40000750CDF8008000F05BFB052000F074F941
:100B5000E07A2825002818BF012008BF2025C700FB
:100B6000281D8DF80400012000F066F9381D8DF86D
:100B7000060001208DF8055000F05EF9206821790B
:100B800001AA04238DF80770CDF8008000F038FB2F
:100B9000052000F051F9E079E27A010120F00F051B
:100BA00001F10807002A14BF08350701281D8DF838
:100BB0000400012000F040F9381D8DF806000120E6
:100BC0008DF8055000F038F92068217901AA042336
:100BD0008DF80770CDF8008000F012FB207AE27AE1
:100BE000010120F00F0501F10807002A14BF0835A4
:100BF0000701281D8DF80400012000F01DF9381DA3
:100C00008DF8060001208DF8055000F015F92068D8
:100C1000217901AA04238DF80770CDF8008000F037
:100C2000EFFA607AE27A010120F00F0501F108077E
:100C3000002A14BF08350701281D8DF80400012083
:100C400000F0FAF8381D8DF8060001208DF80550E7
:100C500000F0F2F82068217901AA04238DF80770CA
:100C6000CDF8008000F0CCFAA07AE27A010120F001
:100C70000F0501F10807002A14BF08350701281DD8
:100C80008DF80400012000F0D7F8381D8DF806001B
:100C900001208DF8055000F0CFF82068217901AAD5
:100CA00004238DF80770CDF8008000F0A9FAE07AEF
:100CB0001827002818BF01204FEAC00505F10400DD
:100CC00008BF10278DF80400012000F0B5F8381D8A
:100CD0008DF8060001208DF8055000F0ADF8206871
:100CE000217901AA04238DF80770CDF8008000F067
:100CF00087FAE07A00280CBF20260120C500281DB5
:100D00008DF80400012000F097F8301D8DF80600E2
:100D100001208DF8055000F08FF82068217901AA94
:100D200004238DF80760CDF8008000F069FA02B066
:100D3000BDE8F08170B582B004464079A37988425D
:100D400098BF411E934298BF5A1ED0B2032805D8BF
:100D5000DFE800F009020608403104E0002102E06B
:100D6000143100E054310A01E37A01F0700002F11D
:100D700008056FF07702002B08BF6FF07F0202EBCF
:100D8000000606F1040008BF0D018DF804000120E3
:100D900000F052F8281D8DF8060001208DF805603E
:100DA00000F04AF8206821794FF47A7601AA0423EA
:100DB0008DF80750009600F023FA02B070BD0000D5
:100DC0002DE9F04782B00A788AB382464E1E4FF46E
:100DD0007A780DF1040900BF11019AF80B3022F066
:100DE0000F0001F10807002B14BF08301701451C44
:100DF00005308DF8040001207C1C00F01DF8781DE2
:100E00008DF8060001208DF8055000F015F8DAF88D
:100E100000009AF804104A4604238DF80740CDF8E4
:100E2000008000F0EDF9B2780136002AD4D102B08A
:100E3000BDE8F08770470000B0B5044600F01EF929
:100E4000054640F20000C2F200000078611C18BFA5
:100E5000044400BF00F012F9401BA042FAD3B0BD19
:100E60002DE9F04F82B00E68002E00F0038141F2B0
:100E70000042C4F20102042340F2004E904208BF37
:100E800003234FF6FF7CC4F2010E009300240123DC
:100E9000C1F2100C4FF0000A4FF0000949E000BF0A
:100EA000012704F00C030F229A402BEA020207FAF2
:100EB00003F34FEA9A051A4346F82520D1F804B007
:100EC00040F20C455FEACB22DEF8082054BF22EA4C
:100ED000080242EA0802C4F20105CEF808202A6896
:100EE0005FEA8B2354BF22EA080242EA08022A6022
:100EF0005FEA8B33DEF8042054BF22EA080242EA9C
:100F000008025FEACB33CEF80420DEF800204FF071
:100F1000010354BF22EA080242EA0802CEF8002088
:100F20000E680AF1010A36FA0AF204F1040400F02C
:100F3000A18003FA0AF816EA080FF1D04E68664558
:100F400012DC122E56D8DFE806F0350B4549555510
:100F500055555555555555555555554D510000BF8D
:100F6000D1F80C9046E000BF4FF6FF72C1F22102AB
:100F700096420FDC0022C1F2110296421AD00022E2
:100F8000C1F21202964215D00022C1F2210296420D
:100F900010D02FE00022C1F2220296420AD0002295
:100FA000C1F23102964205D00022C1F232029642CD
:100FB00020D100BF8A684AB1012A14BFC0F814804A
:100FC000C0F810804FF0080914E000BF4FF004098A
:100FD00010E000BFCA6802F108090BE04FF00009F9
:100FE00008E000BFCA6802F1040903E0CA6802F120
:100FF0000C0900BF22460646BAF1080F24BF203A6A
:10100000043637680F25954027EA050509FA02F2EC
:101010002A433260CA79D2067FF582AF41F21803C3
:10102000C4F202031A68AEF57E7642F001021A603D
:101030001A6802F001020192019A2AF0030256F89E
:1010400002B040F60002C4F20102904210D040F615
:101050000042C4F2010290423FF422AF41F200028A
:10106000C4F20102009F904208BF022719E700BFA7
:10107000002716E702B0BDE8F08F000040F2F40050
:10108000C2F200000068704770B5B8B3044690F82B
:101090003D0028B9002084F83C00204600F0F6FB13
:1010A000242084F83D002068016821F001010160DE
:1010B000016841F400410160016821F400410160D0
:1010C00000F09AFD48F28041C0F21E0140F6001384
:1010D000D4F804E088424FF00001C0F23D0348F22A
:1010E000A16C4FF0000238BF01219842C0F2010C00
:1010F00038BF0122E64538BF0A460AB1012070BD5B
:101100004DF68361C4F21B31A0FB01122168950CDE
:101110004B684FF4967623F03F0343EA92437543BE
:1011200044F6D3564B60C1F262060B6AA5FB065625
:10113000B50923F03F03E64538BF950C6A1C1A43F6
:101140000A62CA6948F2A0664CF6FF73C0F2010653
:10115000B64522EA03020BD801384FEA4E03B0FB32
:10116000F3F001306FF31F30042898BF04201EE015
:10117000A368013863B119230EFB03F3B0FBF3F04E
:1011800001306FF31F3078B100F5804008E000BFF8
:101190000EEB4E03B0FBF3F001306FF31F3028B1BC
:1011A00000F5004003E000BF012000E001201043F3
:1011B000C8610868D4E9072320F0C0001043184331
:1011C0000860886848F2FF3204F10C0690434CCE68
:1011D00018431043A5698860C86820F0FF003043B9
:1011E0002843C860086840F0010008600020202102
:1011F000206484F83D10206384F83E0070BD000038
:101200002DE9F04383B01E46174689460446FFF792
:1012100035FF94F83D10202920D10546206800BFF5
:101220008169890716D5FFF729FF411B20681A2914
:10123000F6D381698907F3D500202021206384F843
:101240003D1084F83E00216C41F02001216484F8B7
:101250003C0003E094F83C10012903D1022003B0C4
:10126000BDE8F083012184F83C100168C90703D16F
:10127000016841F001010160016840F2020821F4B7
:1012800000610160212184F83D10102184F83E1096
:101290000021216467626685618DC0F201082185A5
:1012A000A8F10211E162E16A0A9E11F5803F18BFC0
:1012B00001291DD1016841F48071016020464FF081
:1012C000011100223346009500F0ECFF50B1206878
:1012D0000068C00544BF4FF400702064012003B0D3
:1012E000BDE8F0832069B0F5804F07D1FE2015E0FE
:1012F0000829DFD0216B1229DCD0DFE7062000EAC5
:10130000D9102168F030086108F106012046324604
:101310002B4601F0B1F80028E0D1FF20216800EA57
:10132000090008612046414632462B4601F0A4F8E8
:101330000028D3D100200290206841690291806981
:101340000290029806E000BF204631462A4600F08F
:1013500049FF18BB208D68B3204631462A4601F06C
:1013600043F9D8B9606A2168024612F8013B0B6163
:101370006262628D013A6285228D531E23854F6918
:101380007F07E1D51B04DFD0437802300B61606238
:10139000608D01386085901E2085D5E7206C04287B
:1013A0009CD12068016841F400710160012003B004
:1013B000BDE8F0832068016841F4007101602020DD
:1013C00084F83D00002084F83E0084F83C0003B01F
:1013D000BDE8F0832DE9F04F85B004460020994622
:1013E00016460F460490FFF749FE94F83D10202959
:1013F00027D10546206800BF816989071CD5FFF702
:101400003DFE411B20681A29F6D381698907F3D56F
:1014100000202021206384F83D1084F83E00206CD9
:1014200004F13C0A40F020002064022000218AF8E8
:10143000001005B0BDE8F08FA2461AF83C1F012944
:1014400004D1022005B0BDE8F08F00BF01228AF868
:1014500000200368DDE90F180E9ADB0703D103684B
:1014600043F001030360036823F400630360222058
:1014700084F83D00402084F83E0000202064626231
:101480006185608D394620850020CFF6FF70E062CF
:10149000204632464B46CDF80080019500F0B2FD63
:1014A00020B1012005B0BDE8F08F00BF208D0228DB
:1014B00010D0012824D0002838D1002003902068C3
:1014C00041690391816903910399016841F40071B5
:1014D000016037E02068016841F400610160EFF3CA
:1014E000108072B6002003902068416903918169E1
:1014F00003910399016821F48061016062B621E0E3
:101500002068016821F480610160EFF3108072B6F9
:101510000020039020684169039181690391039938
:10152000016841F40071016062B60BE02068016857
:1015300041F4806101600021039141690391806958
:1015400003900398208D002800F0D480042740F2F7
:1015500008094BF2895BC0F20107C2F20009C1F22F
:10156000F84B232617E000BF204641462A4600F0EC
:10157000F3FF002895D12068616A00690870606AED
:10158000218D01306062481E2085618D01396185A1
:10159000010400F0AF8080B2032867D8022800F071
:1015A00089800128E0D02046394600224346009534
:1015B00000F078FE00287FF474AF2068016821F401
:1015C00080610160EFF3108072B62068616A006983
:1015D0000870606A218D0130013960622185618D5A
:1015E00001396185D9F80010C908A1FB0B12110A55
:1015F000714304910499013904910499002900F080
:10160000858021684A6952071ED4049901390491E2
:101610000499002900F07A8021684A69520713D49E
:10162000049901390491049900296FD021684A690D
:10163000520709D40499013904910499002965D00D
:1016400021684A695207D5D50A6842F400720A60D7
:1016500009690170606A218D01306062481E208531
:10166000608D0138608562B685E700BF204641463F
:101670002A4600F071FF00287FF413AF2068616AEA
:1016800000690870606A2268411C208D616201381F
:101690002085638D013B638553695B077FF578AFD8
:1016A00080B2032803D1106820F4806010601069B4
:1016B00064E700BF2046394600224346009500F00B
:1016C000F1FD00287FF4EDAEEFF3108072B62068D4
:1016D000616A026842F40072026000690870606A20
:1016E000218D01306062481E2085608D0138608543
:1016F00062B640E7202084F83D00002084F83E00D8
:1017000000218AF8001005B0BDE8F08F00202021EC
:10171000206384F83D1084F83E00206C40F02000E7
:10172000206462B6012000218AF8001005B0BDE8EF
:10173000F08F00002DE9F04383B0994616460F461E
:101740000446FFF79BFC94F83D10202920D1054664
:10175000206800BF8169890716D5FFF78FFC411B00
:1017600020681A29F6D381698907F3D50020202142
:10177000206384F83D1084F83E00216C41F0200184
:10178000216484F83C0003E094F83C10012903D163
:10179000022003B0BDE8F083012284F83C200368F6
:1017A000DDE90B180A9ADB0703D1036843F0010354
:1017B0000360036823F400630360212084F83D0084
:1017C000402084F83E000020206462626185608DC4
:1017D000394620850020CFF6FF70E0622046324671
:1017E0004B46CDF80080019500F098FC20B1012017
:1017F00003B0BDE8F08300BF208D98B92046414674
:101800002A4600F0EFFC88B3206C0428EFD1206852
:10181000016841F400710160012003B0BDE8F0836C
:101820000004EBD0204641462A4600F0DDFE0028A9
:10183000EAD1616A2268084610F8013B1361238DE2
:101840006062581E2085678D013F678557697F0755
:10185000E6D50704E4D048781061881C6062981EC1
:101860002085618D01396185DAE700BF2068016854
:1018700041F400710160202084F83D00002084F8CC
:101880003E0084F83C0003B0BDE8F08310B586B09C
:1018900045F200410068C4F200010022884204922F
:1018A00002D006B010BD00BF41F21804C4F2020419
:1018B000206840F008002060206800F008000190D7
:1018C0000198C0200290122003900320059001F59A
:1018D000384002A9FFF7C4FA606840F40010606065
:1018E000606800F400100190019806B010BD00007F
:1018F00040F2000040F2F401C2F20000C2F2000126
:1019000000780A68104408607047000080B542F211
:101910000000C4F20200016841F0100101600320E0
:1019200000F07AF80F2000F005F800F027F800200A
:1019300080BD000070B540F20006C2F2000640F221
:1019400008013278C2F200014FF47A730968B3FBE0
:10195000F2F20446B1FBF2F1084600F03BFB0F2C1B
:101960004FF0010508D838B94FF0FF30214600226A
:10197000002500F025F87460284670BD82B041F261
:101980001800C4F202000168022241F00101016066
:10199000016801F0010101910199416841F0805114
:1019A0004160406800F08050009000980420C4F22C
:1019B0000100016862F31A61016002B07047000023
:1019C00010B54EF60C5CCEF2000CDCF80030C3F320
:1019D000022E8EF00704042C28BF0424BEF103035A
:1019E0004FF0FF3E0EFA04F438BF0023A1439940A4
:1019F0000EFA03F39A43114300F00F0200F1604323
:101A00000901043A03F564436244002848BF02F127
:101A10000C03197010BD00004EF60C51CEF20001FF
:101A20000A684FF6FF031A4060F30A2242F0806012
:101A300040F0FD70086070472DE9F04381B0002848
:101A400000F0858042F20008C4F202080446D8F88B
:101A500000000D4600F0070088420CD2D8F80000C4
:101A600020F007002843C8F80000D8F8000000F074
:101A70000700A8426BD1206841F204098107C4F233
:101A8000020917D5410705D5D9F8001041F4E061E6
:101A9000C9F80010010705D5D9F8001041F46051CC
:101AA000C9F80010D9F80010A26821F0F001114324
:101AB000C9F80010C00741D1D8F8000000F00700B5
:101AC000A8420CD9D8F8000020F007002843C8F835
:101AD0000000D8F8000000F00700A84237D12068C5
:101AE000410707D5D9F80010E26821F4E0611143FD
:101AF000C9F80010000708D5D9F80000216920F4C2
:101B0000605040EAC100C9F80000D9F8002002F096
:101B10000C00082841F20020C0F27A0050D143F6B0
:101B20004213C2F38341C0F60003595CD2033BD495
:101B300040F60010C0F23D00484341E060680228D2
:101B40000AD001282AD159F8041C890308D401209D
:101B500001B0BDE8F08300BF59F8041C8901F6D537
:101B6000D9F8001021F003010843C9F80000FFF77D
:101B700085FA064641F28837D9F80000616800F01E
:101B80000C00B0EB810F97D0FFF778FA801BB842BA
:101B9000F2D9032001B0BDE8F08300BF59F8041C5E
:101BA0008907D4D5DCE700BFD9F8002043F64013FD
:101BB000C2F34042C0F600039A5C4843B0FBF2F027
:101BC000D9F8001043F62812C1F30311C0F6000241
:101BD000515C40F2080220FA01F140F20400C2F226
:101BE00000000068C2F200021160FFF7A3FE0020AF
:101BF00001B0BDE8F083000040F2080041F20401AA
:101C0000C2F20000C4F202010068096843F638120B
:101C1000C1F30221C0F60002515CC84070470000C9
:101C20002DE9F04182B0002868D00446007841F2E6
:101C30000006C007C4F2020625D0706800F00C0050
:101C400004281BD0706800F00C00082802D17068CE
:101C5000C00313D46068002800F06881B0F5A02F9D
:101C600000F07C81B0F5803F00F07C81306820F48A
:101C700080303060306820F4802076E13068800366
:101C800001D56068D0B32078800718D5706810F04F
:101C90000C0F07D0706800F00C0008286ED1706837
:101CA000C0036BD43068800702D52069012825D194
:101CB0003068616920F0F80040EAC10030602078A7
:101CC00000071FD42078400732D4E56995B17068C9
:101CD00000F00C00082840F08F80012D0ED07068B5
:101CE000216A00F480328A4208D1616A00F47010DF
:101CF000884203D1002002B0BDE8F081012002B08B
:101D0000BDE8F081A069002862D00020C4F2422022
:101D10000121C0F88014FFF7B1F90546706A800709
:101D200000F18C80FFF7AAF9401B0228F6D92AE1BE
:101D3000F06910F0805808D1F06940F08050F061EF
:101D4000F06900F080500090009847F20007C4F25C
:101D500000073868C00529D4386840F480703860BE
:101D6000FFF78CF9054600BF3868C0051ED4FFF7A1
:101D700085F9401B6428F7D905E100BF20690028D8
:101D800040F20000C4F2422000F082800121016094
:101D9000FFF774F9054600BF306880073FF588AF4C
:101DA000FFF76CF9401B0228F6D9ECE0E068002848
:101DB00000F08080052800F09780012800F09880CE
:101DC000306A20F001003062306A20F0040092E0B6
:101DD0000020C4F242200021C0F88014FFF74EF921
:101DE000054600BF706A80077FF56CAFFFF746F9C4
:101DF000401B0228F6D9C6E00027C4F24227002083
:101E00003866FFF73BF9022D05460BD1306880019B
:101E100040F1BE80FFF732F9401B02284FF003006B
:101E2000F4D968E7306880017FF564AFFFF726F9E1
:101E3000401B02284FF00300F4D95CE740F2080091
:101E4000C2F20000006844F6D351C1F26201A0FB67
:101E50000101480A019000BF00BF0198411E0028FF
:101E600001913FF42FAF00BF0198411E002801915E
:101E70003FF428AF00BF0198411E002801913FF4B4
:101E800021AF00BF0198411E00280191E4D119E75C
:101E900000210160FFF7F2F8054600BF30688007B7
:101EA0007FF50DAFFFF7EAF8401B02284FF0030063
:101EB000F4D920E7306A20F001003062306A20F067
:101EC00004003062FFF7DAF8054641F2883700BFB8
:101ED000306A800720D5FFF7D1F8401BB8424FF099
:101EE0000300F5D907E700BF306A40F00400306214
:101EF000306A40F001003062FFF7C0F8054641F259
:101F0000883700BF306A800706D4FFF7B7F8401B58
:101F1000B842F7D937E000BFB8F1000F7FF4D5AE73
:101F2000F06920F08050F061CFE600BF306820F407
:101F300080303060306820F480203060FFF79EF8F9
:101F4000054600BF306880037FF59DAEFFF796F829
:101F5000401B64284FF00300F4D9CCE6306840F40D
:101F600080203060306840F480303060FFF786F8C1
:101F7000054600BF306880033FF585AEFFF77EF869
:101F8000401B6428F6D9032002B0BDE8F08100BFF1
:101F9000206AB0F5803F05D17168A26821F4003154
:101FA000114371607168626A21F47411114308432E
:101FB000706001203866FFF761F8044630688001E0
:101FC0003FF598AEFFF75AF8001B02284FF00300C8
:101FD000F4D990E6411E0020B0EB116F1CBF012028
:101FE00070474EF21002CEF2000251604EF62351BD
:101FF000CEF20001F0230B70072190601160704752
:10200000FEE700002DE9F04782B0044600680E4666
:102010000168DDF828A041F4806101600168DDF805
:102020002C9041F480711D461746016020464FF008
:10203000011100225346CDF8009000F033F958B159
:1020400020680068C00544BF4FF40070206403207E
:1020500002B0BDE8F08700BF40F202082068C0F27D
:10206000010806F0FE0606612046414652464B46F0
:1020700000F002FA20B1012002B0BDE8F08700BFF5
:102080000020019020684A464169019180695146CB
:1020900001900198204600F0A7FA98B92068012D18
:1020A00008D0390A0161204651464A4600F09CFAA0
:1020B00040B92068F9B20161204651464A4600F015
:1020C00093FA58B1206C0428D5D12068016841F4F6
:1020D00000710160012002B0BDE8F0872068002295
:1020E0000168534641F48071016020464FF00111B0
:1020F000CDF8009000F0D6F80028A1D1206846F075
:10210000010101612046414652464B4600F0B4F9B8
:10211000002818BF012002B0BDE8F0872DE9F04388
:1021200083B0044600680D4601680A9F0B9E41F487
:10213000807199469046016020464FF001110022BF
:102140003B46009600F0AEF850B120680068C0052C
:1021500044BF4FF400702064032003B0BDE8F08357
:10216000206805F0FE0101610221C0F20101204654
:102170003A46334600F080F920B1012003B0BDE8B3
:10218000F08300BF0020029020683246416902912E
:102190008069394602900298204600F025FA58B12D
:1021A000206C0428E9D12068016841F400710160C5
:1021B000012003B0BDE8F0832068B9F1010F0AD017
:1021C0004FEA1821016120463946324600F00CFAE8
:1021D0000028E5D120685FFA88F10161002003B092
:1021E000BDE8F08370B50368044653F8140F400748
:1021F00011D40E46481C29D086BB00BF1868400584
:1022000027D4FEF73BFF236853F8140F400739D556
:1022100018684007F2D5002070BD00BF186840075D
:10222000F9D41868400514D418684007F3D4186826
:1022300040050ED418684007EDD41868400508D44E
:10224000186840074FF0000048BF70BD186840058F
:10225000E4D56FF480601860042014E0154603E0B4
:1022600053F8140F4007D6D418684005F1D4FEF790
:1022700005FF401B2368B042F2D958694007EFD4EC
:10228000202000E0202000212022216384F83D202E
:1022900084F83E10226C10432064012084F83C1026
:1022A00070BD00002DE9F041054600681E46144649
:1022B00001F47F0201338FB242D0DDF81880B2F50D
:1022C000803F40F0878040693840C01BB0FA80F002
:1022D0004009A04240F0C8804EB924E0406938402F
:1022E000C01BB0FA80F04009A04240F0BD80FEF76C
:1022F000C5FEA0EB08012868B142EFD94169394019
:10230000C91BB1FA81F14909A142E7D19BE000BFA5
:1023100040693840C01BB0FA80F04009A0424FF03D
:10232000000040F0A680FEF7A9FE28684169394008
:10233000C91BB1FA81F14909A142E9D183E000BF8B
:10234000B2F5803F24D100BF41693940C91BB1FAC1
:1023500081F14909A14240F0878041693940C91B98
:10236000B1FA81F14909A14240F07E8041693940CA
:10237000C91BB1FA81F14909A14275D141693940BE
:10238000C91BB1FA81F14909A142DDD06CE000BF5F
:1023900081693940C91BB1FA81F14909A14263D170
:1023A00081693940C91BB1FA81F14909A1425BD168
:1023B00081693940C91BB1FA81F14909A14253D160
:1023C00081693940C91BB1FA81F14909A142DFD0C5
:1023D0004AE000BF80693840C01BB0FA80F0400975
:1023E000A04241D146B923E080693840C01BB0FA11
:1023F00080F04009A0423BD1FEF740FEA0EB08016F
:102400002868B142F0D981693940C91BB1FA81F11C
:102410004909A142E8D116E080693840C01BB0FAF2
:1024200080F04009A0424FF0000018BFBDE8F081E5
:10243000FEF724FE286881693940C91BB1FA81F191
:102440004909A142E8D100202021286385F83D10E8
:1024500085F83E00296C41F02001296485F83C0094
:102460000120BDE8F08100BF0020BDE8F08100BF81
:102470000020BDE8F0810000F0B581B0044600689E
:102480001D4643698FB203EA0701B94202D1002019
:1024900001B0F0BD41691646013201F4806125D0DA
:1024A000002940D1CEB100BFFEF7E8FD411B2068F6
:1024B000B14203D941693940B9424BD141693940F0
:1024C000B942E4D041694905EED52CE04169394073
:1024D000B942DCD04169490525D4FEF7CFFD20681B
:1024E00041693940B942F1D0202024E0D9B941698D
:1024F0003940B942CBD04169490514D441693940CA
:10250000B942C4D0416949050DD441693940B94245
:10251000BDD04169490506D441693940B942B6D0B8
:1025200041694905E3D5016841F4007101606FF428
:1025300080614161042000212022216384F83D2034
:1025400084F83E10226C1043206484F83C10012073
:1025500001B0F0BD2020EEE770B5044600681546D6
:1025600050F8143F5A063DD40E4629B926E000BF64
:1025700050F8141F490635D40168C90621D4FEF766
:102580007DFD411B2068B142F2D941694906EFD473
:1025900000202021206384F83D1084F83E00206C48
:1025A00040F0200018E000BFFEF768FD206850F8FA
:1025B000141F4906ECD50168490613D40168C90601
:1025C000F2D56FF01001016000202021206384F813
:1025D0003D1084F83E00206C2064002084F83C000C
:1025E000012070BD002070BD70B50368044653F82B
:1025F000140F000611D40E46481C29D086BB00BF1C
:102600001868400527D4FEF739FD236853F8140FE6
:10261000000639D518680006F2D5002070BD00BF4D
:1026200018680006F9D41868400514D41868000624
:10263000F3D4186840050ED418680006EDD4186865
:10264000400508D4186800064FF0000048BF70BD70
:1026500018684005E4D56FF480601860042014E029
:10266000154603E053F8140F0006D6D41868400549
:10267000F1D4FEF703FD401B2368B042F2D958693C
:102680000006EFD4202000E020200021202221633A
:1026900084F83D2084F83E10226C10432064012011
:1026A00084F83C1070BD00002DE9F04184B0012693
:1026B0000DF10F00CDE9000640F2A0006425C2F242
:1026C0000000D021752201230295FEF783FE9DF8BC
:1026D0000F00682834D140F2A004C2F200044FF089
:1026E00000080DF10E072046D0216B2201238DF842
:1026F0000E80CDE900760295FFF71CF807208DF8D3
:102700000E002046D02119220123CDE90076029542
:10271000FFF710F82046D0211C2201238DF80E80EF
:10272000CDE900760295FFF705F82046D0211B225F
:1027300001238DF80E80CDE900760295FEF7FAFFB1
:1027400004B0BDE8F0810000FEE70000FEE70000F5
:102750007047000070470000FFF7CAB870470000DC
:10276000FEE7000092B0FFF7D1F84FF480300DF192
:1027700020090024012509904846CDE91044CDE9FF
:102780000E44CDE90C44CDE90A440895FFF748FA18
:1027900020B1EFF3108072B6FEE700BF0F20CDE945
:1027A000030503A80021CDE905440794FFF744F988
:1027B00020B1EFF3108072B6FEE700BF41F21800BF
:1027C000C4F20200016848F2A06241F020010160F9
:1027D0000168002301F020010891089901684FF475
:1027E000804741F0040101600168C0F2010201F07C
:1027F000040108910899016841F00801016000682E
:1028000045F2004100F008000890089840F2A0004E
:10281000C2F20000C4F2000180E80E00C0E90337F4
:10282000C0E90533C0E90733FEF72EFC20B1EFF312
:10283000108072B6FEE700BFFFF736FF40F2700A65
:10284000C2F2000A0AF1240540F2A0010227C2F2F6
:10285000000128464E2210230097FEF703F940F2AC
:10286000000BC3F6107B00BF40F2A004C2F20004CC
:1028700006262046D0213B2201236427CDF8009074
:1028800001960297FEF7A6FDBDF82000BDF8227064
:1028900001BA090CAAF8001039BABDF82480090C55
:1028A000AAF8021098FA88F1090CC0BAAAF8041024
:1028B00000F062FE00225B4600F076FE00F0D0FCE5
:1028C000CAF80C00F8BA00F057FE00225B4600F090
:1028D0006BFE00F0C5FCCAF8100098FAB8F000F0E2
:1028E0004BFE00225B4600F05FFE00F0B9FCCAF828
:1028F00014002046D021432201234FF47A77CDE9FA
:1029000000960297FEF766FDBDF82000BDF8224054
:1029100001BA090CAAF8061021BABDF82470090CF6
:10292000AAF8081039BA090CC0BAAAF80A1000F0BF
:1029300023FE46F20006C4F260060022334600F091
:10294000C1FC00F08DFCCAF81800E0BA00F014FEDB
:102950000022334600F0B6FC00F082FCCAF81C00EE
:10296000F8BA00F009FE0022334600F0ABFC00F09C
:1029700077FCCAF82000284600210022FEF7DAF989
:10298000DAF80C0000F00EFF43F65214C0F6000413
:1029900002460B4648462146FDF722FC284649469A
:1029A000FEF70EFA284605210022FEF7C3F9DAF8F1
:1029B000100000F0F7FE02460B4648462146FDF7A0
:1029C0000FFC28464946FEF7FBF928460A2100225B
:1029D000FEF7B0F9DAF8140000F0E4FE02460B4608
:1029E00048462146FDF7FCFB28464946FEF7E8F934
:1029F000284600210122FEF79DF9DAF8180000F0C0
:102A0000D1FE02460B4648462146FDF7E9FB284623
:102A10004946FEF7D5F9284605210122FEF78AF935
:102A2000DAF81C0000F0BEFE02460B46484621467E
:102A3000FDF7D6FB28464946FEF7C2F928460A218B
:102A40000122FEF777F9DAF8200000F0ABFE02462B
:102A50000B4648462146FDF7C3FB28464946FEF78C
:102A6000AFF94FF4FA70FEF7E7F9FDE65FEA400CC4
:102A700008BF91F0000F4FEA8C234FEAC12243EACE
:102A800051514FEA1C5018BF00F5F0404FEA30009A
:102A900018BF41F000415FEA6C5C00F02980BCF196
:102AA000FF3F08BF40F080407047130C06BF120480
:102AB0004FF0100C4FF0000C130E04BF12020CF17B
:102AC000080C130F04BF12010CF1040C930F04BF88
:102AD00092000CF1020CD30F04BF52000CF1010C58
:102AE00011464FF00002A0F11F00A0EB0C00704750
:102AF00011F0004F08BF704731F000413FF4D5AFEF
:102B00000B0C06BF09044FF0100C4FF0000C0B0E1D
:102B100004BF09020CF1080C0B0F04BF09010CF1F2
:102B2000040C8B0F04BF89000CF1020CCB0F04BF07
:102B300049000CF1010CCCF1200322FA03F341EA25
:102B4000030102FA0CF2A0EB0C0000F10100704747
:102B500023F07F4720F07F4C80EA030000F0004024
:102B6000ACEB070303F57C5303F1FF032DE9804928
:102B700009B44FEA144324EA03484FEA154B25EA07
:102B80000B4E0FF2042606EB13273E7803FB066775
:102B9000C7F5000707FB06F64FEAD64606F1020620
:102BA0004FEA543707FB066CCCF1005C4FEA1C4738
:102BB0002CEA074C0CFB06F507FB06F404EB154664
:102BC0004FEA961649085FEA320234BF00204FF000
:102BD00000404FEAD13706FB07FC4FEA1C4C0CFBC8
:102BE0000BF7D21B03FB0CF761EB07010CFB0EF795
:102BF000B0EB074072EB17420CFB08F734BFA2EBB7
:102C00000742B2EB074261EB17414FEA0C444FEA2F
:102C1000910706FB07FC4FEA1C4C0CFB0BF7B0EBD3
:102C2000C74072EB573203FB0CF734BFA2EBC7422D
:102C3000B2EBC74261EB57310CFB0EF7B0EBC700AC
:102C400072EB57720CFB08F734BFA2EBC702B2EB72
:102C5000C70261EB57714FEA816141EA92114FEA75
:102C6000826242EA90124FEA806004EBCC04039F38
:102C70004FEAD13706FB07FC4FEA1C4C0CFB0BF765
:102C8000D21B03FB0CF761EB07010CFB0EF7B0EB5B
:102C9000074072EB17420CFB08F734BFA2EB074268
:102CA000B2EB074261EB17414FEA8C5504EB9C24D1
:102CB0004FEA910706FB07FC4FEA1C4C0CFB0BF795
:102CC000B0EBC74072EB573203FB0CF734BFA2EBFB
:102CD000C742B2EBC74261EB57310CFB0EF7B0EBCA
:102CE000C70072EB57720CFB08F734BFA2EBC702A8
:102CF000B2EBC70261EB57714FEA816141EA921171
:102D00004FEA826242EA90124FEA806015EB4C254E
:102D100044F100044FEAD13706FB07FC4FEA1C4C94
:102D20000CFB0BF7D21B03FB0CF761EB07010CFB51
:102D30000EF7B0EB074072EB17420CFB08F734BFFD
:102D4000A2EB0742B2EB074261EB17414FEA813138
:102D500041EA92414FEA823242EA90424FEA8030A1
:102D60004FEA0C7615EB1C1544F1000448EA0343C6
:102D70004EEA0B484FF0000EB2EB080C71EB030764
:102D800024BF624639464EEB0E0E4FF0000B001882
:102D9000524149414BEB0B0BB2EB080C71EB0307B3
:102DA0007BF1000B24BF624639464EEB0E0E4FF00E
:102DB000000B0018524149414BEB0B0BB2EB080CD6
:102DC00071EB03077BF1000B24BF624639464EEBE3
:102DD0000E0E51EA020718BF46F0010616EB0E76FA
:102DE00055F1000254F1000103D5BDE88901BDE8A9
:102DF0000088BDE88901BDE80048B619524141EBA1
:102E00000101A3F10103704780807F7E7D7C7B7A86
:102E10007978777676757473727171706F6E6E6D86
:102E20006C6C6B6A6A69686867666665646463632C
:102E300062616160605F5F5E5E5D5D5C5C5B5B5AB2
:102E40005A5959585857575656555555545453531F
:102E500052525251515050504F4F4F4E4E4D4D4D7A
:102E60004C4C4C4B4B4B4A4A4A49494948484847C5
:102E70004747474646464545454444444443434303
:102E800043424242424141419C46002B30D47700AC
:102E90002BD04FEA37071CB503B44FF010004FF0AA
:102EA0001001BAF1000F06D0BCF1000FDCBF40F0FA
:102EB000080040F008014FF000000FBCBDE81040D2
:102EC0000BF1010BBBF1010F08BF5FEA170722BF2F
:102ED00012F1010211F101014FF0004143F1000331
:102EE00000F0004043EA00007047F9D35708D0E7EC
:102EF00046EA06464FEA164613F1400F1FDD13F16E
:102F0000200FDFBF16430A46002120335B42BED0AC
:102F1000C3F1200746EA06464FEA164602FA07F7CB
:102F200046EA070622FA03F2C3F1200701FA07F77F
:102F300042EA070221FA03F14FF00003A7E746EA4D
:102F4000020646EA06464FEA164646EA0106BCBFB6
:102F500046EA0646360C4FF000034FF000024FF0F1
:102F6000000194E72DE9804C70B49A46934691E8AD
:102F7000380007C831EA400C48BF34EA430C03D597
:102F8000FFF7E6FDFFF780FFF0BCBDE8008C2DE900
:102F9000804C70B49A46934691E8380007C810F008
:102FA000804F08BF13F0804F03D100F005F8FFF702
:102FB0006BFFF0BCBDE8008C20F07F4723F07F4C16
:102FC00080EA030000F0004007EB0C03A3F57C53FC
:102FD000A3F1FE0392F0000F00F0B38095F0000F14
:102FE00000F077802DE901494FEA114021EA0048BD
:102FF0004FEA144624EA064700FB06FC08FB06F6E7
:1030000007FB08F818EB06484CEB164C00FB07F7DB
:1030100018EB07484CEB17404FEA124B22EA0B4ED5
:103020004FEA154625EA06470BFB06FC0EFB06F6A3
:1030300007FB0EFE1EEB064E4CEB164C0BFB07F788
:103040001EEB074E4CEB174B18EB0B0840F1000042
:1030500018EB0E0B58EB000840F100008F1A4FF0F0
:1030600000014FF000063CBFC943661B14BFB5EB1F
:10307000040C00213CBFC943F61B4FEA174427EA62
:1030800004454FEA1C472CEA074C04FB076205FB8A
:1030900007F70CFB05F616EB074642EB174204FB5D
:1030A0000CFC16EB0C4642EB1C421BEB060658EBE5
:1030B000020241414EEA8E0E46EA9E0601D5BDE867
:1030C0000189B619524141EB0101A3F10103BDE8A9
:1030D00001894FEA144524EA05464FEA114721EADF
:1030E000074C05FB07F406FB07F70CFB06F111EB99
:1030F000074144EB174405FB0CFC11EB0C4144EB7E
:103100001C444FEA124722EA074C05FB07F206FB74
:1031100007F70CFB06F616EB074642EB174205FBDA
:103120000CFC16EB0C4642EB1C456A1854F10001EE
:1031300048BF7047B619524141EB0101A3F10103A9
:10314000704795F0000F37D04FEA114221EA02464E
:103150004FEA144724EA074C02FB07F106FB07F786
:103160000CFB06F414EB074441EB174102FB0CFC8B
:1031700014EB0C4441EB1C414FEA154725EA074C80
:1031800002FB07F506FB07F70CFB06F616EB0746F6
:1031900045EB174502FB0CFC16EB0C4645EB1C42BD
:1031A000121951F1000148BF7047B619524141EB65
:1031B0000101A3F1010370474FEA144524EA0546D3
:1031C0004FEA114721EA074C05FB07F106FB07F719
:1031D0000CFB06F212EB074241EB174105FB0CFC1E
:1031E00012EB0C4251EB1C414FF0000648BF7047F8
:1031F000921841EB0101A3F101037047490050EA25
:10320000C12018BF04204A0D18BF40F0010040F251
:10321000FF72B2EB515F08BF40F00200012808BF07
:103220000520704730380A2801D20120704700205D
:103230007047000010B500290AD00878002807D090
:1032400005487844FDF7C4FB002801D0002010BDDC
:103250000248784410BD0000360700002E07000029
:1032600021F0004201F00043A2F16052B2F5801F4C
:1032700028BFD2F17F6C0BD95FEA001C43EAC2027F
:1032800042EB507018BF704728BF20F00100704714
:10329000B2F5801FBCBF184670474FEA410C1CF5C1
:1032A000001F02D2084600F0EEBA70B500F026FA10
:1032B00000000089FFF7F6BF4FF00040A0F5800046
:1032C000704700002DE9C04130B4DFF8A4C23CEAE9
:1032D000111418BF3CEA131400F0ED801CEA11141D
:1032E00081EA030544EAD57418BF1CEA131500F0FF
:1032F000C880A4EB050404F17F7404F500344FF09A
:10330000004545EAC12145EAC32341EA505143EA59
:1033100052534FEAC0204FEAC222994208BF90425E
:1033200000F09D804FEA13650FF24416765D4FEA78
:10333000134506FB05F7C7F1807706FB07F74FEA51
:10334000D737A7FB03687642A7FB06CEC8F58038BF
:1033500038BFA8F1010807FB08E6A6FB028C4FF076
:10336000000EE6FB03CEDCF1000CCEF1004E38BFC0
:10337000AEF1010EA6FB0C584FF00007E6FB0E87DE
:10338000A1FB08C6A0FB07CE16EB0E064FF000050A
:1033900045F10005E1FB076515F1E04E7EBFA4F5A0
:1033A00080345FEA46066D4116F1800745F100055D
:1033B0004FEA172747EA05674FEA15254FEA0666E1
:1033C000A6F1DE46B6F1805F20D9384605EBC47120
:1033D00024F0010C01EB0C11BCF1FE6F02D8F0BC23
:1033E000BDE8008124425CBF01F5801E9EEAC47FD7
:1033F00002D4F0BCBDE80081244200F13980A1F183
:10340000C041F0BCBDE8004100F0C6B94FEAD02091
:1034100040EA41504FEAD1214FEAD22242EA4352D8
:103420004FEAD323A7FB028607FB036605FB026670
:103430001EEA0E0F58BFA6EB0056B6EB00564FEA39
:10344000520E4EEAC37E18EB0E0E56EB530EBCD551
:1034500018EB02085E417F1C55F10005B5E74FF4FB
:1034600080154FF000074FF000064FF00008ACE762
:1034700001F1C04101F000414FF00000F0BCBDE897
:1034800000810CEA131511EA0C1F00D00CE013EABE
:103490000C1F00F026804FF0000081EA030101F0CC
:1034A0000041F0BCBDE80081F0BCBDE8004181EA0C
:1034B000030100F071B9F0BCBDE8004170B500F047
:1034C0001DF900BF097EFC3E00F007B84FF0000078
:1034D00081EA030101F00041704781EA030100F035
:1034E0005BB9F0BCBDE8004122494FF000007047D5
:1034F000FFFDFBF9F7F5F4F2F0EEEDEBE9E8E6E4B9
:10350000E3E1E0DEDDDBDAD8D7D5D4D3D1D0CFCD3F
:10351000CCCBCAC8C7C6C5C4C2C1C0BFBEBDBCBB78
:10352000BAB9B8B7B6B5B4B3B2B1B0AFAEADACAB73
:10353000AAA9A8A8A7A6A5A4A3A3A2A1A09F9F9E4D
:103540009D9C9C9B9A9999989797969595949393FF
:10355000929191908F8F8E8E8D8C8C8B8B8A898996
:103560008888878786858584848383828281818019
:103570000000FF070000F87F10F0004248BF404203
:10358000B0FA80F310FA03F10AD0C3F11D0303F57A
:10359000806302EB03524FEA415002EBD1217047A6
:1035A0004FF000007047000070B5DFF848C11CEA1A
:1035B000111E1EBF1CEA13159EEA0C0F95EA0C0F94
:1035C00000F06F8081EA03044EEAD47EAE4421EA23
:1035D0004C1123EA4C1341F4801143F48013AEF1F3
:1035E0007F7EA1FB024CA0FB0365361955EB0C0551
:1035F000A1FB034C4CF10003A0FB021C16EB0C06D4
:10360000654153F10003094218BF46F0010613F467
:10361000007F0BD14FEA03314FEA053041EA1551E3
:1036200040EA165034036FF003020AE04FEAC32168
:103630004FEAC52041EA555140EA5650F4026FF076
:10364000020202EB2E4201EB025585EACE710AD04E
:103650005FEA440C18BF24F0004450F1000041F12F
:10366000000120EAD47040F2FE7C624500D270BDB9
:10367000A84214BF4FF080444FF04044002E08BFD2
:103680000024BEF1806FA8BFA1F1C041BDE8704029
:1036900080F2828001F1C04101F000414FF0000052
:1036A00070470CEA13159EEA0C0F18BF95EA0C0F31
:1036B00006D081EA030E4FF000000EF0004170BD0D
:1036C00000F01CF88900013E00F007B800F009B8CE
:1036D0004FEA430C5FEA5C5C08D081EA030100F02A
:1036E0005BB84FEA410C5FEA5C5CF6D102494FF0EF
:1036F000000070470000FF070000F87F0EF1020E87
:103700002EF0030E5EF8046B364205D4012A43EB1B
:10371000030515F5001F12D8012841EB010C1CF51B
:10372000001F0CD80ED14FEAD17C0CEB4C0C0CF1E5
:10373000020C15F5001F08BF4CEBD37C04E04FF0E2
:10374000080C01E04FEAD37C0CEB4C0526FA05F699
:1037500006F00706B6F1040C06D20EEB860CBDE8A7
:1037600070404CF0010C6047DFE80CF0090B0202DE
:103770004FF00041A1F500214FF0000070BD194647
:103780001046012851EB010418BFD4F5001484BF82
:10379000002001F0004170BD0808A0F500114FEABB
:1037A0003101704743004FEAD30C4FEA3C0C4340D1
:1037B0001FBF40070CF1605113F0FE4F70471CF023
:1037C000006F03D10CF00041002070470CF0004363
:1037D00043EA507040EACC0010B500F00EF800BF8C
:1037E000000000924FEA0001FFF7D6BF4FF0004102
:1037F000A1F500214FF0000070470EF1020E2EF0EF
:10380000030E5EF8044B244204D44FEA4102B2F1A5
:103810007F4F11D84FEA4003B3F17F4F0CD80ED140
:103820004FEAD07C0CEB4C0C0CF1020CB2F17F4F48
:1038300008BF4CEBD17C04E04FF0080C01E04FEAEC
:10384000D17C0CEB4C0324FA03F404F00704B4F12C
:10385000040C06D20EEB840CBDE810404CF0010CB9
:103860006047DFE80CF0070802024FF00040A0F5C7
:10387000800010BD0846420018BFD2F1807288BF98
:1038800000F0004010BDFF2141EAD050C005704754
:10389000FCF71CBE02400000000000A00000000079
:1038A00005400000000000C8000000000C400000BF
:1038B0000000409C00000000194000000020BCBE39
:1038C0000000000034400000BFC91B8E000000044F
:1038D000B5400000504BCFD06607E2CF010000009A
:1038E0006C4100003E8251AADFEEA73401000000C7
:1038F000D9420000DCB5A0E23A301F97FFFFFFFF7E
:10390000B4450000FD25A0C8E9A3C14FFFFFFFFF9C
:10391000FF3F00000000008000000000FF3F0000AB
:103920000000008000000000000000000000000017
:103930000102030406070809000000000102030455
:10394000010202030405060708090A0B0C0D0E0FFD
:103950001010252E31660000983900080000002064
:103960001000000028010008A839000810000020FD
:10397000E8060000440100081C00000043000000AD
:10398000F8FFFFFF0C0000000E0000000F00000019
:103990002E000000000000000100000010000000E8
:0839A00000127A000000000093
:04000005080000ED02
:00000001FF
