:020000040800F2
:10000000800700209101000825250008E92000084C
:10001000212500080505000839250008000000001A
:100020000000000000000000000000002D25000876
:10003000390A0008000000002925000831250008C1
:10004000AB010008AB010008AB010008AB010008E0
:10005000AB010008AB010008AB010008AB010008D0
:10006000AB010008AB010008AB010008AB010008C0
:10007000AB010008AB010008AB010008AB010008B0
:10008000AB010008AB01000841040008AB01000807
:10009000AB010008AB010008AB010008AB01000890
:1000A000AB010008AB010008AB010008AB01000880
:1000B000AB010008AB010008AB010008AB01000870
:1000C000AB010008AB010008AB010008AB01000860
:1000D000AB010008AB010008AB010008AB01000850
:1000E000AB010008AB010008AB01000800F002F80A
:1000F00000F03FF80AA090E8000C82448344AAF183
:100100000107DA4501D100F034F8AFF2090EBAE880
:100110000F0013F0010F18BFFB1A43F0010318473B
:10012000E026000000270000103A24BF78C878C1FC
:10013000FAD8520724BF30C830C144BF04680C60ED
:10014000704700000023002400250026103A28BF35
:1001500078C1FBD8520728BF30C148BF0B60704739
:10016000642900F07D80002070471FB51FBD10B5C9
:1001700010BD00F02AF91146FFF7F7FF02F0DEF993
:1001800000F048F903B4FFF7F2FF03BC00F050F9A8
:100190000948804709480047FEE7FEE7FEE7FEE71B
:1001A000FEE7FEE7FEE7FEE7FEE7FEE70448054957
:1001B000054A064B7047000035250008ED00000891
:1001C00080010020800700208003002080030020A1
:1001D0000FB41CB5074B06AA7B44694600900598EE
:1001E00000F0DBF80020694600F0EAF81CBC5DF87E
:1001F00014FB0000E50100002DE9F0410E46044625
:10020000002020622046E168884730B3252805D0C9
:10021000D4E901219047206A401CF2E7E1682046BA
:1002200000278847050018D0A5F14100192802D8F9
:1002300020354FF400673246294620462760FFF7F5
:100240008FFF40B1012804D0F61D26F007060836BE
:10025000D8E7361DD6E72846DAE7206ABDE8F08100
:100260002DE9F0410646002410687529314616A58F
:1002700010D0AFF30080002802DA404213A507E057
:1002800031688A0701D512A502E0490704D511A5F6
:10029000012401E0AFF3008000210A2206F12407C7
:1002A00009E0B0FBF2FCB0FBF2F302FB1C003030C3
:1002B00078541846491C0028F3D123462A46304674
:1002C000BDE8F04100F00BB8000000002D00000078
:1002D0002B000000200000007047704770472DE998
:1002E000F0470D4699469246044600F124080168FD
:1002F000880604D5E06921F01001216000E00120AA
:10030000A84201DD471B00E00027A1697A1902EB32
:100310000900081AA0612078C00602D42046AFF375
:100320000080002608E0D4E901211AF80600904771
:10033000206A401C761C20624E45F4DB2078C00603
:100340000AD52046AFF3008006E0D4E90121302031
:100350009047206A401C2062381EA7F10107F4DC98
:1003600007E0D4E9012118F805009047206A401CF5
:100370002062281EA5F10105F3DC2046AFF30080C2
:100380002078000602D50220BDE8F0870120FBE7B7
:1003900001694A1C02610878704700B58FB0CDE949
:1003A00001310021059105497944CDE90310114639
:1003B0006846FFF721FF0FB000BD0000E5FFFFFF1B
:1003C0000A6802F8010B0A607047754600F02CF8C5
:1003D000AE4605006946534620F00700854618B032
:1003E00020B5FFF7E3FEBDE820404FF000064FF0D8
:1003F00000074FF000084FF0000BAC46ACE8C00916
:10040000ACE8C009ACE8C009ACE8C00921F00701BC
:100410008D46704710B50446AFF300802046BDE816
:100420001040FFF7AFBE00000048704718000020E2
:1004300001491820ABBEFEE726000200704700000D
:1004400040F2AC00C2F2000000F0D4BBB0B582B004
:1004500004460020019021688A68D2074FD188683D
:1004600040F00100886040F21400C2F20000006811
:100470004DF68361C4F21B31A0FB0101880C019091
:100480000198A0B1019801380190019878B10198C4
:1004900001380190019850B10198013801900198FC
:1004A00028B101980138019001980028EAD100F0A4
:1004B0009BFE21688968C9071CD1054603E000BF7F
:1004C0008068C0071AD100F08FFE411B2068032905
:1004D000F6D38168C907F3D1A06A40F01000A0628A
:1004E000E06A40F00100E062002084F8240001206E
:1004F00002B0B0BD002002B0B0BD00BF002002B00D
:10050000B0BD0000FEE700002DE9F04182B00446D6
:1005100008982160A07140F60640C2F61400C4F8A5
:1005200007000820E07232202271637100F02EFD76
:10053000E07A3825002808BF30252E1D01203827F5
:100540008DF8046000F022FD01208DF805508DF833
:10055000066000F01BFD206821794FF47A7801AA2B
:1005600004238DF80750CDF8008000F0FFFEE07AFC
:100570003826002808BF3026351D01208DF804508C
:1005800000F004FD01208DF805608DF8065000F0A4
:10059000FDFC2068217901AA04238DF80760CDF8BD
:1005A000008000F0E3FE052000F0F0FCE07A282552
:1005B000002808BF302707F1040008BF20258DF868
:1005C00004000120282600F0E1FC281D8DF806001B
:1005D00001208DF8057000F0D9FC2068217901AA6E
:1005E00004238DF80750CDF8008000F0BFFE0520F1
:1005F00000F0CCFCE07A2825002818BF012008BFB5
:100600002025C700281D8DF80400012000F0BEFC45
:10061000381D8DF8060001208DF8055000F0B6FC5D
:100620002068217901AA04238DF80770CDF8008095
:1006300000F09CFE052000F0A9FCE079E27A0101BF
:1006400020F00F0501F10807002A14BF0835070143
:10065000281D8DF80400012000F098FC381D8DF84D
:10066000060001208DF8055000F090FC20682179EB
:1006700001AA04238DF80770CDF8008000F076FE03
:10068000207AE27A010120F00F0501F10807002A23
:1006900014BF08350701281D8DF80400012000F063
:1006A00075FC381D8DF8060001208DF8055000F00E
:1006B0006DFC2068217901AA04238DF80770CDF81C
:1006C000008000F053FE607AE27A010120F00F050D
:1006D00001F10807002A14BF08350701281D8DF80D
:1006E0000400012000F052FC381D8DF806000120A6
:1006F0008DF8055000F04AFC2068217901AA0423F6
:100700008DF80770CDF8008000F030FEA07AE27A14
:10071000010120F00F0501F10807002A14BF083578
:100720000701281D8DF80400012000F02FFC381D62
:100730008DF8060001208DF8055000F027FC206898
:10074000217901AA04238DF80770CDF8008000F00C
:100750000DFEE07A1827002818BF01204FEAC005D7
:1007600005F1040008BF10278DF80400012000F0F7
:100770000DFC381D8DF8060001208DF8055000F0A5
:1007800005FC2068217901AA04238DF80770CDF8B3
:10079000008000F0EBFDE07A00280CBF202601204D
:1007A000C500281D8DF80400012000F0EFFB301D6E
:1007B0008DF8060001208DF8055000F0E7FB206859
:1007C000217901AA04238DF80760CDF8008000F09C
:1007D000CDFD02B0BDE8F08170B582B0044640792D
:1007E000A379884298BF411E934298BF5A1ED0B247
:1007F000032805D8DFE800F009020608403104E0CC
:10080000002102E0143100E054310A01E37A01F0E2
:10081000700002F108056FF07702002B08BF6FF03F
:100820007F0202EB000606F1040008BF0D018DF8FF
:100830000400012000F0AAFB281D8DF8060001200D
:100840008DF8056000F0A2FB206821794FF47A76DC
:1008500001AA04238DF80750009600F087FD02B02E
:1008600070BD00002DE9F04782B00A788AB3824655
:100870004E1E4FF47A780DF1040900BF11019AF869
:100880000B3022F00F0001F10807002B14BF0830D5
:100890001701451C05308DF8040001207C1C00F078
:1008A00075FB781D8DF8060001208DF8055000F0CD
:1008B0006DFBDAF800009AF804104A4604238DF81C
:1008C0000740CDF8008000F051FDB2780136002AD3
:1008D000D4D102B0BDE8F08740F20802C2F20002B3
:1008E0001368436053688360128901608281704796
:1008F00010B50446642000F049FB01206279A37919
:10090000E0710020A4F809009818227AC043801AE8
:1009100002BA20684FEA124C211D0A224FF47A7362
:10092000A4F80BC0BDE8104001F022BB10B504468E
:10093000642000F02BFB0E20E0710020A4F80900D9
:100940006079A279237A104418446FF00D02101ACE
:1009500002BA20684FEA124C211D0A224FF47A7322
:10096000A4F80BC0BDE8104001F002BB10B504466E
:10097000642000F00BFB0D20E0710020A4F80900BA
:100980006079A279237A104418446FF00C02101A8F
:1009900002BA20684FEA124C211D0A224FF47A73E2
:1009A000A4F80BC0BDE8104001F0E2BA10B504464F
:1009B000642000F0EBFA0220E0710020A4F80900A6
:1009C0006079A279237A104418446FF00102101A5A
:1009D00002BA20684FEA124C211D0A224FF47A73A2
:1009E000A4F80BC0BDE8104001F0C2BAF0B581B068
:1009F000044664200D460E0ACFB200F0C7FA062066
:100A0000E0716079A27907EB1527237A3844104406
:100A100018446FF00502101A02BA2068170C211D45
:100A20006672A5720A224FF47A73A4F80B7001B0B3
:100A3000BDE8F04001F09CBA70470000704700002C
:100A400010B581B00022009290F82420012A03D131
:100A50000221084601B010BD4B680122062B80F828
:100A6000242017D8D0F800C003EB83035A1F1F239C
:100A7000DCF834E003FA02F40B682EEA040403FA0B
:100A800002F22243CCF83420092B03EB430219D99C
:100A900036E000BFD0F800C00C2B03EB83021DD85A
:100AA000233A1F23DCF830E003FA02F40B682EEA45
:100AB000040403FA02F22243CCF83020092B03EBA2
:100AC00043021DD8DCF81030072489689440A34302
:100AD00091401943CCF81010002130E0413A1F2317
:100AE000DCF82CE003FA02F40B682EEA040403FAA3
:100AF00002F22243CCF82C20092B03EB4302E1D96C
:100B0000DCF80CE01E3A0724896894402EEA0404BD
:100B1000914023F001022143102ACCF80C100DD192
:100B200042F20841C4F20101A1F1080294450DD03E
:100B3000816A41F020018162012100E00021002250
:100B400080F82420084601B010BD00BF0A681202D8
:100B500030D40A68102B42F400020A602CD140F213
:100B60001401C2F2000109684DF68362C4F21B321F
:100B7000A1FB0212910C01EB810149000091009947
:100B8000E1B10099013900910099C9B10099013989
:100B900000910099B1B1009901390091009999B182
:100BA000009901390091009900294FF00001E8D126
:100BB000C5E700BF0021C2E70021C0E70021BEE772
:100BC0000021BCE70021BAE70021B8E710B540F2E8
:100BD0007804C2F200040068616B884218BF10BD3F
:100BE00004F1340000F002F8608010BD0068C06CB1
:100BF0007047000070B50446006805684668B10695
:100C000027D515F0020124D0A16AC90603D4A16A30
:100C100041F40071A162816801F46021B1F5602F97
:100C200010D1217B71B9416821F020014160A06A97
:100C300020F48070A062A06AC00403D4A06A40F0CF
:100C40000100A0622046FFF7C1FF20686FF012018B
:100C50000160310633D515F0040130D0A16AC90610
:100C600003D4A16A41F40051A162816801F4E0411A
:100C7000B1F5E04F10D1416821F080014160A06AD8
:100C800020F48050A062A06AC00511D4A06A40F090
:100C90000100A0620CE000BF4168490508D48168EA
:100CA00001F46021B1F5602F02D1217B0029E2D04F
:100CB0002046FFF7C3FE20686FF00C01016070064C
:100CC0000ED515F0010008BF70BDA06A40F4803059
:100CD000A062204600F0B4F820686FF001010160C6
:100CE00070BD0000B0B5002800F0A8800446806AFE
:100CF00020B121688868C0070BD114E00020E062B1
:100D000084F82400204600F09DF821688868C00718
:100D100009D0886820F00100886000F065FA216839
:100D20008A68D20726D1A06AC0063AD4A06A41F2E6
:100D3000021290430230A062E069D4E9013240EA35
:100D4000030C531EB3FA83F35D091346B2F5807F9B
:100D500018BF2B02207D257B01284CEA450030D1AD
:100D600035B3A56A45F02005A562E56A45F00105A1
:100D7000E56226E0054602E08868C007D3D000F0AF
:100D800033FA401B21680328F6D38868C007F3D0E4
:100D9000A06A40F01000A062E06A40F00100E0624A
:100DA000A06AA06A40F01000A0620120B0BD00BFA0
:100DB000D4F818C04EF60005CFF6FF7505EB4C359C
:100DC0002B434D68B2F5807F25F4694543EA05035E
:100DD0004B608B684FF2FD75CFF6E17503EA0503B2
:100DE00043EA00038B6001D0012A07D12269002366
:100DF000CFF6F07303EB025201E000BF0022CB6A92
:100E000023F470031A43CA62896840F6FE62CFF683
:100E10001F721140814207D10020E062A16A0122C5
:100E200062F30101A162B0BDA06A40F0100020F0A1
:100E30000200A062E06A40F00100E0620120B0BD63
:100E40007047000080B586B0014640F60000C4F24D
:100E50000100096800F5E05291424FF00001CDE930
:100E6000041101D006B080BD41F21801C4F20201A4
:100E70000A6842F400720A600A6802F40072019281
:100E8000019A0A6842F004020A60096801F004014C
:100E900001910199012102910321039102A900F01E
:100EA00089F812200021002200F0F8FB122000F047
:100EB000E1FB06B080BD000010B5044690F82400A8
:100EC000012804BF022010BD012084F82400204620
:100ED000FFF7BCFA20B1002184F8241010BD00BF38
:100EE00042F2044C2068A16AC4F2010C40F601727F
:100EF00091430CF57F7201F580719042A16237D069
:100F0000A16A21F48011A1624168490504D5A16A52
:100F1000012363F30D31A162A16A0023C9044FF0DC
:100F2000000144BFE16A21F00601E1626FF00201B5
:100F300084F824300160416841F0200141608168FB
:100F400001F46021B1F5602F06D190420AD1DCF89E
:100F5000001011F4702F05D0816841F48011816078
:100F6000002010BD816841F4A0018160002010BD07
:100F7000DCF8001011F4702FC2D0A16A41F4801186
:100F8000A162DCF800104905C1D4C5E7B0B504463C
:100F900000F02AF9054640F20000C2F20000007895
:100FA000611C18BF044400BF00F01EF9401BA042A2
:100FB000FAD3B0BD2DE9F04F82B00E68002E00F0DC
:100FC000038141F20042C4F20102042340F2004EC8
:100FD000904208BF03234FF6FF7CC4F2010E00933A
:100FE00000240123C1F2100C4FF0000A4FF0000959
:100FF00049E000BF012704F00C030F229A402BEABE
:10100000020207FA03F34FEA9A051A4346F825202D
:10101000D1F804B040F20C455FEACB22DEF808209C
:1010200054BF22EA080242EA0802C4F20105CEF8DF
:1010300008202A685FEA8B2354BF22EA080242EAAA
:1010400008022A605FEA8B33DEF8042054BF22EAEC
:10105000080242EA08025FEACB33CEF80420DEF849
:1010600000204FF0010354BF22EA080242EA0802BE
:10107000CEF800200E680AF1010A36FA0AF204F1ED
:10108000040400F0A18003FA0AF816EA080FF1D070
:101090004E68664512DC122E56D8DFE806F0350B96
:1010A0004549555555555555555555555555554D14
:1010B000510000BFD1F80C9046E000BF4FF6FF7220
:1010C000C1F2210296420FDC0022C1F211029642C7
:1010D0001AD00022C1F21202964215D00022C1F2AB
:1010E0002102964210D02FE00022C1F22202964245
:1010F0000AD00022C1F23102964205D00022C1F28C
:101100003202964220D100BF8A684AB1012A14BF38
:10111000C0F81480C0F810804FF0080914E000BF38
:101120004FF0040910E000BFCA6802F108090BE0A3
:101130004FF0000908E000BFCA6802F1040903E0AB
:10114000CA6802F10C0900BF22460646BAF1080F30
:1011500024BF203A043637680F25954027EA050555
:1011600009FA02F22A433260CA79D2067FF582AFC9
:1011700041F21803C4F202031A68AEF57E7642F01B
:1011800001021A601A6802F001020192019A2AF023
:10119000030256F802B040F60002C4F20102904287
:1011A00010D040F60042C4F2010290423FF422AF58
:1011B00041F20002C4F20102009F904208BF0227E0
:1011C00019E700BF002716E702B0BDE8F08F000066
:1011D0008068084018BF012070470000002A08BF3F
:1011E000090401617047000040F27810C2F200006B
:1011F0000068704770B5B8B3044690F83D0028B950
:10120000002084F83C00204600F09AF9242084F85D
:101210003D002068016821F001010160016841F48E
:1012200000410160016821F40041016000F0D8FB39
:1012300048F28041C0F21E0140F60013D4F804E0E9
:1012400088424FF00001C0F23D0348F2A16C4FF01C
:10125000000238BF01219842C0F2010C38BF0122C0
:10126000E64538BF0A460AB1012070BD4DF68361DC
:10127000C4F21B31A0FB01122168950C4B684FF49E
:10128000967623F03F0343EA9243754344F6D356E0
:101290004B60C1F262060B6AA5FB0656B50923F046
:1012A0003F03E64538BF950C6A1C1A430A62CA69B7
:1012B00048F2A0664CF6FF73C0F20106B64522EA7A
:1012C00003020BD801384FEA4E03B0FBF3F00130B4
:1012D0006FF31F30042898BF04201EE0A368013874
:1012E00063B119230EFB03F3B0FBF3F001306FF38E
:1012F0001F3078B100F5804008E000BF0EEB4E03D0
:10130000B0FBF3F001306FF31F3028B100F500405F
:1013100003E000BF012000E001201043C86108681D
:10132000D4E9072320F0C000104318430860886800
:1013300048F2FF3204F10C0690434CCE18431043A0
:10134000A5698860C86820F0FF0030432843C86062
:10135000086840F00100086000202021206484F823
:101360003D10206384F83E0070BD00002DE9F0437D
:1013700083B01E46174689460446FFF735FF94F8AA
:101380003D10202920D10546206800BF81698907CA
:1013900016D5FFF729FF411B20681A29F6D381696A
:1013A0008907F3D500202021206384F83D1084F8BC
:1013B0003E00216C41F02001216484F83C0003E0F0
:1013C00094F83C10012903D1022003B0BDE8F0835A
:1013D000012184F83C100168C90703D1016841F07C
:1013E00001010160016840F2020821F4006101601E
:1013F000212184F83D10102184F83E100021216441
:1014000067626685618DC0F201082185A8F102112D
:10141000E162E16A0A9E11F5803F18BF01291DD1E2
:10142000016841F48071016020464FF001110022F3
:101430003346009500F0BAFE50B120680068C00540
:1014400044BF4FF400702064012003B0BDE8F08376
:101450002069B0F5804F07D1FE2015E00829DFD0C4
:10146000216B1229DCD0DFE7062000EAD9102168C1
:10147000F030086108F10601204632462B4600F0A4
:101480007FFF0028E0D1FF20216800EA0900086101
:101490002046414632462B4600F072FF0028D3D149
:1014A00000200290206841690291806902900298B0
:1014B00006E000BF204631462A4600F017FE18BB62
:1014C000208D68B3204631462A4600F0C9FFD8B9BE
:1014D000606A2168024612F8013B0B616262628D0C
:1014E000013A6285228D531E23854F697F07E1D51E
:1014F0001B04DFD0437802300B616062608D0138DD
:101500006085901E2085D5E7206C04289CD120683A
:10151000016841F400710160012003B0BDE8F0836F
:101520002068016841F400710160202084F83D00CA
:10153000002084F83E0084F83C0003B0BDE8F0834E
:1015400010B586B045F200410068C4F200010022E7
:101550008842049202D006B010BD00BF41F21804C8
:10156000C4F20204206840F008002060206800F007
:10157000080001900198C0200290122003900320DF
:10158000059001F5384002A9FFF714FD606840F4AA
:1015900000106060606800F400100190019806B0CF
:1015A00010BD000040F2000040F27811C2F20000CD
:1015B000C2F2000100780A68104408607047000019
:1015C00080B542F20000C4F20200016841F010014F
:1015D0000160032000F08EF80F2000F005F800F005
:1015E00027F8002080BD000070B540F20006C2F26E
:1015F000000640F214013278C2F200014FF47A730F
:101600000968B3FBF2F20446B1FBF2F1084600F0C0
:10161000E9FB0F2C4FF0010508D838B94FF0FF3027
:1016200021460022002500F039F87460284670BD7C
:1016300082B041F21800C4F202000168022241F0B7
:1016400001010160016801F0010101910199416806
:1016500041F080514160406800F080500090009857
:101660000420C4F20100016862F31A61016002B053
:1016700070470000002848BF7047C1B200F01F004B
:10168000012202FA00F04EF20012CEF2000242EA0B
:10169000D10121F0030108607047000010B54EF63B
:1016A0000C5CCEF2000CDCF80030C3F3022E8EF09E
:1016B0000704042C28BF0424BEF103034FF0FF3EAF
:1016C0000EFA04F438BF0023A14399400EFA03F345
:1016D0009A43114300F00F0200F160430901043AFC
:1016E00003F564436244002848BF02F10C031970FB
:1016F00010BD00004EF60C51CEF200010A684FF604
:10170000FF031A4060F30A2242F0806040F0FD704F
:10171000086070472DE9F04182B00446007841F23C
:101720001C06C007C4F202064AD0306810F0805888
:1017300008D1306840F080503060306800F0805050
:101740000190019847F20007C4F200073868C0050D
:1017500012D4386840F480703860FFF745FD0546C4
:101760003868C00508D4FFF73FFD401B6428F7D94F
:10177000032002B0BDE8F081706810F4407012D010
:10178000616801F4407188420DD0706840F24042B7
:10179000C4F24222012320F4407113600023C007E9
:1017A000136071602AD17068616820F4407008434A
:1017B000B8F1000F706003D1306820F080503060C5
:1017C0002068810707D556F8181CA26821F440410B
:1017D000114346F8181CC00604D4002002B0BDE82E
:1017E000F08100BF56F8180CE16820F4800008432F
:1017F00046F8180C002002B0BDE8F081FFF7F4FCB9
:10180000054641F2883700BF70688007CBD4FFF7E8
:10181000EBFC401BB8424FF00300F5D9EBE70000AA
:101820002DE9F04381B0002800F0858042F20008E5
:10183000C4F202080446D8F800000D4600F0070084
:1018400088420CD2D8F8000020F007002843C8F8DE
:101850000000D8F8000000F00700A8426BD1206813
:1018600041F204098107C4F2020917D5410705D5E1
:10187000D9F8001041F4E061C9F80010010705D55E
:10188000D9F8001041F46051C9F80010D9F80010DF
:10189000A26821F0F0011143C9F80010C00741D13E
:1018A000D8F8000000F00700A8420CD9D8F80000D2
:1018B00020F007002843C8F80000D8F8000000F026
:1018C0000700A84237D12068410707D5D9F8001092
:1018D000E26821F4E0611143C9F80010000708D55F
:1018E000D9F80000216920F4605040EAC100C9F82D
:1018F0000000D9F8002002F00C00082841F2002076
:10190000C0F27A0050D142F2EE73C2F38341C0F6C6
:101910000003595CD2033BD440F60010C0F23D00F6
:10192000484341E0606802280AD001282AD159F8CA
:10193000041C890308D4012001B0BDE8F08300BF76
:1019400059F8041C8901F6D5D9F8001021F00301DB
:101950000843C9F80000FFF747FC064641F2883704
:10196000D9F80000616800F00C00B0EB810F97D04F
:10197000FFF73AFC801BB842F2D9032001B0BDE862
:10198000F08300BF59F8041C8907D4D5DCE700BFF9
:10199000D9F8002042F2EC73C2F34042C0F60003D3
:1019A0009A5C4843B0FBF2F0D9F8001042F2D472CE
:1019B000C1F30311C0F60002515C40F2140220FA98
:1019C00001F140F20400C2F200000068C2F200021D
:1019D0001160FFF709FE002001B0BDE8F0830000B0
:1019E00040F2140041F20401C2F20000C4F202010C
:1019F0000068096842F2E472C1F30221C0F60002F5
:101A0000515CC8407047000040F2140041F20401EC
:101A1000C2F20000C4F202010068096842F2E472F6
:101A2000C1F3C221C0F60002515CC84070470000FB
:101A30002DE9F04182B0002868D00446007841F2D8
:101A40000006C007C4F2020625D0706800F00C0042
:101A500004281BD0706800F00C00082802D17068C0
:101A6000C00313D46068002800F06881B0F5A02F8F
:101A700000F07C81B0F5803F00F07C81306820F47C
:101A800080303060306820F4802076E13068800358
:101A900001D56068D0B32078800718D5706810F041
:101AA0000C0F07D0706800F00C0008286ED1706829
:101AB000C0036BD43068800702D52069012825D186
:101AC0003068616920F0F80040EAC1003060207899
:101AD00000071FD42078400732D4E56995B17068BB
:101AE00000F00C00082840F08F80012D0ED07068A7
:101AF000216A00F480328A4208D1616A00F47010D1
:101B0000884203D1002002B0BDE8F081012002B07C
:101B1000BDE8F081A069002862D00020C4F2422014
:101B20000121C0F88014FFF75FFB0546706A80074B
:101B300000F18C80FFF758FB401B0228F6D92AE100
:101B4000F06910F0805808D1F06940F08050F061E1
:101B5000F06900F080500090009847F20007C4F24E
:101B600000073868C00529D4386840F480703860B0
:101B7000FFF73AFB054600BF3868C0051ED4FFF7E3
:101B800033FB401B6428F7D905E100BF206900281A
:101B900040F20000C4F2422000F082800121016086
:101BA000FFF722FB054600BF306880073FF588AF8E
:101BB000FFF71AFB401B0228F6D9ECE0E06800288A
:101BC00000F08080052800F09780012800F09880C0
:101BD000306A20F001003062306A20F0040092E0A8
:101BE0000020C4F242200021C0F88014FFF7FCFA64
:101BF000054600BF706A80077FF56CAFFFF7F4FA07
:101C0000401B0228F6D9C6E00027C4F24227002074
:101C10003866FFF7E9FA022D05460BD130688001DE
:101C200040F1BE80FFF7E0FA401B02284FF00300AE
:101C3000F4D968E7306880017FF564AFFFF7D4FA24
:101C4000401B02284FF00300F4D95CE740F2140077
:101C5000C2F20000006844F6D351C1F26201A0FB59
:101C60000101480A019000BF00BF0198411E0028F1
:101C700001913FF42FAF00BF0198411E0028019150
:101C80003FF428AF00BF0198411E002801913FF4A6
:101C900021AF00BF0198411E00280191E4D119E74E
:101CA00000210160FFF7A0FA054600BF30688007F9
:101CB0007FF50DAFFFF798FA401B02284FF00300A5
:101CC000F4D920E7306A20F001003062306A20F059
:101CD00004003062FFF788FA054641F2883700BFFA
:101CE000306A800720D5FFF77FFA401BB8424FF0DB
:101CF0000300F5D907E700BF306A40F00400306206
:101D0000306A40F001003062FFF76EFA054641F29A
:101D1000883700BF306A800706D4FFF765FA401B9A
:101D2000B842F7D937E000BFB8F1000F7FF4D5AE65
:101D3000F06920F08050F061CFE600BF306820F4F9
:101D400080303060306820F480203060FFF74CFA3B
:101D5000054600BF306880037FF59DAEFFF744FA6B
:101D6000401B64284FF00300F4D9CCE6306840F4FF
:101D700080203060306840F480303060FFF734FA03
:101D8000054600BF306880033FF585AEFFF72CFAAB
:101D9000401B6428F6D9032002B0BDE8F08100BFE3
:101DA000206AB0F5803F05D17168A26821F4003146
:101DB000114371607168626A21F474111143084320
:101DC000706001203866FFF70FFA04463068800122
:101DD0003FF598AEFFF708FA001B02284FF003000A
:101DE000F4D990E6411E0020B0EB116F1CBF01201A
:101DF00070474EF21002CEF2000251604EF62351AF
:101E0000CEF20001F0230B70072190601160704743
:101E1000002804BF0120704710B5044690F8410027
:101E200028B9002084F84000204600F063F8242000
:101E300084F841002068D4E90212C36823F40053F7
:101E4000C360036923F440531A430261D4E90423B5
:101E50001143C268194341F20C639A431143C160B4
:101E60004169A26921F44071114343F60002C4F2B2
:101E700001029042416103D0FFF7B2FD02E000BFD2
:101E8000FFF7C2FD6268192148439100B0FBF1F0F1
:101E900048F21F51C5F2EB11A0FB01235A094FF67E
:101EA0009C73C0F6FF7302FB0300322303EB0010A8
:101EB000A0FB0101F02303EA5113206803EB021297
:101EC000C1F3431111448160016921F49041016122
:101ED000416921F02A014161C16841F40051C160AA
:101EE00000202021606484F8411084F8421060636F
:101EF00010BD000070B586B040F60004C4F20104C5
:101F0000006804F5405100268842049602D006B0CD
:101F100070BD00BF41F21800C4F20200016802ADBA
:101F200041F480410160016801F48041019101990F
:101F3000016841F0040101600068294600F00400D6
:101F4000019001984FF4007002900220039003204A
:101F500005902046FFF72EF84FF48060CDE9020689
:101F6000204629460496FFF725F806B070BD00000C
:101F70002DE9F041044690F8410020281CBF0220C2
:101F8000BDE8F0810D4600294FF0010000F0AA8065
:101F90001646002A08BFBDE8F081002060642120B9
:101FA000984684F84100FFF71FF9A684E684A168EB
:101FB0000646B1F5805F02D12069002862D02F4625
:101FC0000025E08C002861D018F1010018D0B8F18C
:101FD000000F37D1216808E017F8010B4860E08C4A
:101FE0000138E084E08C002851D00868000673D5E1
:101FF000002FF1D135F8020B00276FF35F20EDE7DA
:10200000216802E00868000609D40868000606D4C2
:10201000086800065CBF08685FEA0060F2D51FB17F
:1020200017F8010B05E000BF35F8020B00276FF32E
:102030005F204860E08C0138E084E08C0028E4D127
:1020400025E000BF216800BF0868000608D4FFF73C
:10205000CBF8801B404541D82168C868F4E700BF31
:1020600017B117F8010B04E035F8020B00276FF3E6
:102070005F204860E08C0138E084E08C0028E3D1E8
:1020800005E000BF0027E08C00289DD1216808688A
:1020900040061FD4B8F1000F1ED018F101000FD177
:1020A0000868400616D40868400613D4086840063D
:1020B00010D4086840064FF00000F1D50FE000BFD3
:1020C000FFF792F8801B404508D82068C168006877
:1020D0004006F5D5002002E0FFF786F80320202116
:1020E00084F84110BDE8F081FEE7000070B5036898
:1020F000044653F8140F400711D40E46481C29D04B
:1021000086BB00BF1868400527D4FFF76DF8236829
:1021100053F8140F400739D518684007F2D500204E
:1021200070BD00BF18684007F9D41868400514D482
:1021300018684007F3D4186840050ED418684007A3
:10214000EDD41868400508D4186840074FF0000027
:1021500048BF70BD18684005E4D56FF48060186012
:10216000042014E0154603E053F8140F4007D6D4BA
:1021700018684005F1D4FFF737F8401B2368B042D8
:10218000F2D958694007EFD4202000E02020002138
:102190002022216384F83D2084F83E10226C1043F5
:1021A0002064012084F83C1070BD00002DE9F0414E
:1021B000054600681E46144601F47F0201338FB2C3
:1021C00042D0DDF81880B2F5803F40F0878040694A
:1021D0003840C01BB0FA80F04009A04240F0C880EF
:1021E0004EB924E040693840C01BB0FA80F0400985
:1021F000A04240F0BD80FEF7F7FFA0EB0801286881
:10220000B142EFD941693940C91BB1FA81F149099D
:10221000A142E7D19BE000BF40693840C01BB0FA43
:1022200080F04009A0424FF0000040F0A680FEF789
:10223000DBFF286841693940C91BB1FA81F14909BE
:10224000A142E9D183E000BFB2F5803F24D100BFB5
:1022500041693940C91BB1FA81F14909A14240F0F5
:10226000878041693940C91BB1FA81F14909A1420E
:1022700040F07E8041693940C91BB1FA81F14909BA
:10228000A14275D141693940C91BB1FA81F14909AF
:10229000A142DDD06CE000BF81693940C91BB1FAB1
:1022A00081F14909A14263D181693940C91BB1FA61
:1022B00081F14909A1425BD181693940C91BB1FA59
:1022C00081F14909A14253D181693940C91BB1FA51
:1022D00081F14909A142DFD04AE000BF806938405E
:1022E000C01BB0FA80F04009A04241D146B923E0BA
:1022F00080693840C01BB0FA80F04009A0423BD151
:10230000FEF772FFA0EB08012868B142F0D981699D
:102310003940C91BB1FA81F14909A142E8D116E05F
:1023200080693840C01BB0FA80F04009A0424FF0ED
:10233000000018BFBDE8F081FEF756FF28688169EC
:102340003940C91BB1FA81F14909A142E8D1002005
:102350002021286385F83D1085F83E00296C41F066
:102360002001296485F83C000120BDE8F08100BF10
:102370000020BDE8F08100BF0020BDE8F081000032
:10238000F0B581B0044600681D4643698FB203EA88
:102390000701B94202D1002001B0F0BD41691646E3
:1023A000013201F4806125D0002940D1CEB100BFB7
:1023B000FEF71AFF411B2068B14203D94169394039
:1023C000B9424BD141693940B942E4D0416949052C
:1023D000EED52CE041693940B942DCD0416949056C
:1023E00025D4FEF701FF206841693940B942F1D098
:1023F000202024E0D9B941693940B942CBD04169A4
:10240000490514D441693940B942C4D041694905EC
:102410000DD441693940B942BDD04169490506D45E
:1024200041693940B942B6D041694905E3D50168EF
:1024300041F4007101606FF480614161042000216A
:102440002022216384F83D2084F83E10226C104342
:10245000206484F83C10012001B0F0BD2020EEE79C
:1024600070B50368044653F8140F000611D40E46E5
:10247000481C29D086BB00BF1868400527D4FEF74A
:10248000B3FE236853F8140F000639D51868000608
:10249000F2D5002070BD00BF18680006F9D4186896
:1024A000400514D418680006F3D4186840050ED40B
:1024B00018680006EDD41868400508D418680006AE
:1024C0004FF0000048BF70BD18684005E4D56FF4B8
:1024D00080601860042014E0154603E053F8140FE0
:1024E0000006D6D418684005F1D4FEF77DFE401BE7
:1024F0002368B042F2D958690006EFD4202000E0EA
:10250000202000212022216384F83D2084F83E1001
:10251000226C10432064012084F83C1070BD000040
:10252000FEE70000FEE70000704700007047000073
:10253000FFF738B870470000FEE7000094B0FFF7DF
:102540003FF800240120CDE90F44CDE90D440A9065
:102550000E904FF4E0104FF48031022513900AA83A
:102560000494CDE90244CDE90B14CDE91151FFF7F4
:102570005FFA28B1EFF3108072B600BFFEE700BF2C
:102580000F20CDE905054FF48060CDE9080405A8CA
:1025900002210794FFF744F920B1EFF3108072B6DF
:1025A000FEE700BF4FF400400226039001A8019609
:1025B000FFF7B0F820B1EFF3108072B6FEE700BF6E
:1025C000002441F218000D94C4F20200016840F6A4
:1025D000000941F0200101600168C4F2010901F025
:1025E0002001059105990168002241F00401016074
:1025F0000168E02701F0040105910599016841F0A7
:10260000080101600068E02100F0080005900598CD
:102610004846FEF7E3FD0E200AA90AAD51C148461F
:102620002946FEF7C7FC0A97012748462946CDE907
:102630000B740D96FEF7BEFC40F2301009F54051C8
:10264000C2F200000C234FF4165280E81600C0E9D5
:102650000344C0E90534C461FFF7DAFB20B1EFF3AE
:10266000108072B6FEE700BF40F2780AC2F2000A9C
:1026700009F5E051504640F8341F4FF460210773CC
:102680000475C161C0E901440761FEF72BFB28B165
:10269000EFF3108072B600BFFEE700BF00240120F8
:1026A0000AF13405CDE90B040AA928460A94FEF77D
:1026B000C7F928B1EFF3108072B600BFFEE700BF84
:1026C00040F2DC00A9F53441C2F2000048F2A062F9
:1026D0004FF48043C0F2010280E81600C0E90343D2
:1026E000C0E90544C0E90744FEF784FD20B1EFF3DB
:1026F000108072B6FEE700BF2846FEF7DDFB0AF148
:10270000100540F23011C2F200012846FEF7E4F84D
:102710000AF1040640F2DC010227C2F20001304651
:102720004E2210230097FDF7EFFE4BF217240AF11B
:1027300020070FF2940800BFBAF802004008604377
:10274000010D2846FEF752F9304600210022FEF71F
:1027500043F8BAF80200414640086043020D38468B
:10276000FDF736FD30463946FEF77CF84846022133
:10277000FEF72EFD012802D12846FEF717F948463C
:102780000421FEF725FD012814D19AF80000012844
:1027900006D058B92846FEF7E9F8012004E000BF4A
:1027A0002846FEF7C3F800208AF800004FF4FA70BC
:1027B000FEF7ECFB48460821FEF70AFD0128BBD1D5
:1027C0002846FEF795F8B7E7566F6C756D653A20A9
:1027D0002564000000000000000000000102030466
:1027E00006070809000000000102030401020203B9
:1027F0000405060708090A0B0C0D0E0F1010000047
:10280000202800080000002018000000280100080F
:10281000382800081800002068070000440100085C
:1028200001000000100000007EFF06000000000014
:0828300000EF000000127A0025
:04000005080000ED02
:00000001FF
