:020000040800F2
:1000000078070020A10100089D290008612500084B
:1000100099290008610A0008B129000800000000C1
:10002000000000000000000000000000A5290008FA
:100030008511000800000000A1290008A929000876
:10004000BB010008BB010008BB010008BB010008A0
:10005000BB010008BB010008BB010008BB01000890
:10006000BB010008BB010008BB010008BB01000880
:10007000BB010008BB010008BB010008BB01000870
:10008000BB010008BB010008BB010008BB01000860
:10009000BB010008BB010008BB010008BB01000850
:1000A000BB010008BB010008BB010008BB01000840
:1000B000BB010008BB010008BB010008BB01000830
:1000C000BB010008BB010008BB010008BB01000820
:1000D000BB010008BB010008BB010008BB01000810
:1000E000BB010008BB010008BB01000800F002F8DA
:1000F00000F047F80AA090E8000C82448344AAF17B
:100100000107DA4501D100F03CF8AFF2090EBAE878
:100110000F0013F0010F18BFFB1A43F0010318473B
:100120004436000064360000103A24BF78C878C115
:10013000FAD8520724BF30C830C144BF04680C60ED
:10014000704700000023002400250026103A28BF35
:1001500078C1FBD8520728BF30C148BF0B60704739
:10016000662903F09A82002070471FB500F002FB59
:1001700004000020002103F0EFF9E0601FBD10B57E
:1001800010BD00F0F7FB1146FFF7EFFF02F012FC85
:1001900000F015FC03B4FFF7F2FF03BC00F058FCBD
:1001A0000948804709480047FEE7FEE7FEE7FEE70B
:1001B000FEE7FEE7FEE7FEE7FEE7FEE70448054947
:1001C000054A064B70470000AD290008ED00000805
:1001D00078010020780700207803002078030020B1
:1001E0000FB41CB5074B06AA7B44694600900598DE
:1001F00000F0A7FA0020694600F0B6FA1CBC5DF8D2
:1002000014FB00007D0500002DE9F0474FF0000AC7
:1002100089460446C0F820A02046E16888470028A7
:1002200076D0252806D0D4E901219047206A401CC9
:100230002062F1E7E168204600258847C4F81CA049
:1002400006460027C4F818A02A2E09D0304603F02D
:100250007BF938B304EB8708303EC8F8186019E022
:1002600059F8041B204604EB87029161E168884736
:10027000012F064618D1E069002820DA25F0200574
:100280001DE0D8F8180000EB800006EB4000303885
:10029000C8F818002046E1688847064603F054F97C
:1002A0000028EED1012F0AD02E2E08D12046E16879
:1002B00088477F1C0646022F45F02005C4DBA06955
:1002C000002803DA404245F00105A061E80701D0AB
:1002D00025F01005B6B1A6F14100192802D8203644
:1002E00045F400654A463146204625604D46FFF7F5
:1002F00037FF58B1012806D0ED1D25F0070000F1A9
:10030000080989E704E005F1040985E730468AE732
:10031000206ABDE8F0877047704770472DE9FF4FAE
:100320000C461E464FF0FF378BB0D2E90001DDF8D6
:1003300060800A908A46C1F30A5505B93D460021FE
:1003400008464FF00000BAF1000F00F4400005DA53
:1003500000EB80004FF4400101EA50004FEA905951
:10036000B9F1010F00DDB9460A9850EA4A000ED0F3
:1003700044F61050A5F2FF3545432F14B8F1000F95
:100380001ED07542291E1EDDC9F100021CE0B8F125
:10039000010F4FF0000001D0302103E0F24305E0EF
:1003A0002154401CB042FBDB304600220021215486
:1003B0000B99C1F80880C1E900200FB0BDE8F08FAB
:1003C000BD1B6D1CDEE74A4600DA694206A800F054
:1003D0005BFA06AB93E8070003AB83E807005046DF
:1003E0000A9902F0D5FC8DE80700A0F500501F38EF
:1003F00000900398002D0ADD42F21F014A4608448E
:10040000002303A90390684602F03EFF09E0A0F52F
:1004100000504A461F38002303A90390684602F0A3
:1004200048FF8DE807000004000C03D04FF0FF30B8
:10043000410800E01046B8F1000F03D000220092FE
:1004400015461EE0751E05D400F098F9303262554D
:100450006D1EF9D5B3460122084302D000227F1C4D
:1004600004E02078302801D100227F1E002A09975D
:1004700084D01DE0112D07DA00F080F9303262558A
:100480006D1C50EA0102F5D1084302D00098C8B1B2
:100490000EE00021681E05E0235C625C6354225478
:1004A000401E491C8142F7DBAB46A81B401E099049
:1004B000002004F80B000B98099AC0F80880C0E9E6
:1004C000002B7AE711264FF0000857E72DE9F04F8F
:1004D00088460446D21D22F0070191B0D1E90001FF
:1004E000CDE90A0103F01CF802460B98C00F01D0B9
:1004F0002D2007E02068810701D52B2002E0202174
:1005000001EAC000032A099001D0072A05DB03464F
:100510004146204600F078F90BE12078800601D5AD
:10052000E06900E00620B8F1650F814606D0B8F119
:10053000660F18D0B8F1670F70D131E00020B9F123
:10054000110F009001DB112301E009F101030AAA58
:1005500001A90CA8FFF7E2FEDDE90C70002609F105
:100560000105834647E001204B4600904FF00047CD
:100570000AAA01A90CA8FFF7D1FEDDE90DB00C997C
:100580005D46002610B909F101000D18B9EB050010
:1005900003D4C0F1FF3609F10105A5EB09002BE0FA
:1005A000B9F1010F01DA4FF001090020B9F1110F83
:1005B0000090484601DD112300E003460AAA01A984
:1005C0000CA8FFF7ABFEDDE90C704D460026834614
:1005D000207800070AD4AB4500DA5D4601A8012D5A
:1005E00004DD411911F8011C302907D04F4502DA0A
:1005F00017F1040F04DA012082460FE06D1EEEE7CA
:10060000002F02DCED1B3E4403E0781CA84200DD15
:100610007D1CB81B00F1010A4FF00047207800074D
:1006200003D4AA4501DB4FF0FF3A0021B7F1004F98
:100630000DF143088DF8431024D002202B23002F06
:1006400001DA7F422D230A21021EA0F1010000DC05
:100650005FB197FBF1FC97FBF1F201FB1C7C1746A5
:100660000CF1300C08F801CDEEE7A8F101000370A1
:100670002188090501D5452100E06521A0F1010887
:1006800000F8011C09980FA9A1EB0807FF1D00B194
:100690000120411901EBEA70A1693844081A401E93
:1006A000A0612078C00602D42046AFF300800998EC
:1006B00028B1D4E901219047206A401C20622078AB
:1006C000C00622D52046AFF300801EE0002E04DBDA
:1006D000B34502DD01A8805D00E03020D4E90121AE
:1006E0009047206A401C2062761CAAF101005FEA54
:1006F000000A0AD100F03EF8C0680168405CD4E905
:1007000001219047206A401C2062281EA5F10105A6
:10071000DCDC07E0D4E9012118F8010B9047206ADE
:10072000401C2062381EA7F10107F3DC2046AFF31E
:100730000080032011B041E601694A1C026108787B
:10074000704700B58FB0CDE9013100210591054911
:100750007944CDE9031011466846FFF755FD0FB007
:1007600000BD0000E5FFFFFF0A6802F8010B0A6008
:1007700070470000004870473000002030B5B0F1ED
:100780000A0271F100034FEA900E4EEA817EB0EB4F
:100790000E0061EB91014FEA101E4EEA017E10EB54
:1007A0000E0041EB11114FEA102E4EEA016E10EBD4
:1007B0000E0041EB11214FEA104E4EEA014E10EBB4
:1007C0000E0041EB1141401841F100014FEAD00009
:1007D00040EA41704FEAD1014FEA810444EA907443
:1007E00010EB800544EB01046D1944EB0404521B2B
:1007F000A3414FF0000348BF0A3200D530BD401C72
:1008000041F1000130BD00002DE9F0411F460446D2
:1008100003260168072A01F4006004DB08B116A56D
:1008200005E016A503E008B115A500E015A521F027
:1008300010002060A069C01EA0610FB1401EA06121
:100840002046AFF300804FB1D4E9012138469047EC
:10085000206A401C2062C01C206206E0206AFAE781
:10086000D4E9012115F8010B9047761EF8D22046F5
:10087000AFF30080BDE8F0814E414E006E616E0026
:10088000494E4600696E66002DE9F04781461646DE
:100890008AB0354878440DC88DE80D003248784458
:1008A000801C03AC0DC884E80D0041F69B30084461
:1008B000372190FBF1F290FBF1F5A5F1800501FBEA
:1008C00012041B3C02D56442012000E00020DFF846
:1008D00098A080460027FA44AAF1BE0A0EE0E0077D
:1008E0000AD03246684607EB470101230AEB810133
:1008F00002F0DFFC8DE8070064107F1C002CEED1B5
:10090000194F7F44AE3F19E0E80715D007EB0410FC
:100910000DF1180A90E80E008AE80E00C068F04257
:1009200001D1981908903246012306A903A802F0C4
:10093000C0FC03AB83E807006D10641C002DE3D1FD
:100940004FF0010332466946B8F1000F03A802D008
:1009500002F09AFC01E002F0ACFCC9E90001C9F820
:1009600008200AB0BDE8F087842E000000487047D8
:10097000100000207546FFF7F9FFAE4605006946F6
:10098000534620F00700854618B020B5FFF716FC47
:10099000BDE820404FF000064FF000074FF0000880
:1009A0004FF0000BAC46ACE8C009ACE8C009ACE8BD
:1009B000C009ACE8C00921F007018D46704710B5A9
:1009C0000446AFF300802046BDE81040FFF7E2BBCD
:1009D0004FF0013C50F8042B51F8043B9A4221D1CE
:1009E000A2EB0C03934313EACC1317D150F8042B5A
:1009F00051F8043B9A4215D1A2EB0C03934313EA3E
:100A0000CC130BD150F8042B51F8043B9A4209D176
:100A1000A2EB0C03934313EACC13DBD04FF000009E
:100A2000704700BFD01A01BAB1FA81F101F0180184
:100A300022FA01F0CB40DBB2C0B2C01AC1F12001F2
:100A40002CFA01F3D11A914311EAC311E6D1704790
:100A500001491820ABBEFEE72600020070470000E7
:100A6000FEE7000070B582B00446C07A1826002860
:100A700018BF01204FEAC00505F1040008BF102689
:100A80008DF80400012000F07FFB301D8DF806007A
:100A900001208DF8055000F077FB206821798DF852
:100AA00007604FF47A7601AA0423009600F05CFDFB
:100AB000052000F069FB02B070BD00002DE9F04197
:100AC00082B0044608982160A07140F60640C2F644
:100AD0001400C4F807000820E0723220227163710C
:100AE00000F052FBE07A3825002808BF30252E1D83
:100AF000012038278DF8046000F046FB01208DF8B6
:100B000005508DF8066000F03FFB206821794FF416
:100B10007A7801AA04238DF80750CDF8008000F000
:100B200023FDE07A3826002808BF3026351D012035
:100B30008DF8045000F028FB01208DF805608DF839
:100B4000065000F021FB2068217901AA04238DF8CA
:100B50000760CDF8008000F007FD052000F014FBD1
:100B6000E07A2825002808BF302707F1040008BFD5
:100B700020258DF804000120282600F005FB281D03
:100B80008DF8060001208DF8057000F0FDFA206850
:100B9000217901AA04238DF80750CDF8008000F0D8
:100BA000E3FC052000F0F0FAE07A2825002818BFC1
:100BB000012008BF2025C700281D8DF80400012052
:100BC00000F0E2FA381D8DF8060001208DF805507E
:100BD00000F0DAFA2068217901AA04238DF8077061
:100BE000CDF8008000F0C0FC052000F0CDFAE079DF
:100BF000E27A010120F00F0501F10807002A14BF75
:100C000008350701281D8DF80400012000F0BCFA0A
:100C1000381D8DF8060001208DF8055000F0B4FA5B
:100C20002068217901AA04238DF80770CDF800808F
:100C300000F09AFC207AE27A010120F00F0501F120
:100C40000807002A14BF08350701281D8DF8040085
:100C5000012000F099FA381D8DF8060001208DF86A
:100C6000055000F091FA2068217901AA04238DF83B
:100C70000770CDF8008000F077FC607AE27A01011D
:100C800020F00F0501F10807002A14BF08350701FD
:100C9000281D8DF80400012000F076FA381D8DF82B
:100CA000060001208DF8055000F06EFA20682179C9
:100CB00001AA04238DF80770CDF8008000F054FCE1
:100CC000A07AE27A010120F00F0501F10807002A5D
:100CD00014BF08350701281D8DF80400012000F01D
:100CE00053FA381D8DF8060001208DF8055000F0EC
:100CF0004BFA2068217901AA04238DF80770CDF8FA
:100D0000008000F031FCE07A1827002818BF01208D
:100D10004FEAC00505F1040008BF10278DF8040054
:100D2000012000F031FA381D8DF8060001208DF801
:100D3000055000F029FA2068217901AA04238DF8D2
:100D40000770CDF8008000F00FFCE07A00280CBF9F
:100D500020260120C500281D8DF80400012000F088
:100D600013FA301D8DF8060001208DF8055000F0B3
:100D70000BFA2068217901AA04238DF80760CDF8C9
:100D8000008000F0F1FB02B0BDE8F08170B582B0E8
:100D900004464079A379884298BF411E934298BF88
:100DA0005A1ED0B2032805D8DFE800F00902060871
:100DB000403104E0002102E0143100E054310A0126
:100DC000E37A01F0700002F108056FF07702002B62
:100DD00008BF6FF07F0202EB000606F1040008BFB7
:100DE0000D018DF80400012000F0CEF9281D8DF8CA
:100DF000060001208DF8056000F0C6F92068217911
:100E00004FF47A7601AA04238DF80750009600F07B
:100E1000ABFB02B070BD0000F0B583B004460A0120
:100E2000E37A01F0F00002F10805002B14BF08304E
:100E30000D01461C05308DF8080001206F1C00F0E4
:100E4000A3F9681D8DF80A0001208DF8096000F0F3
:100E50009BF9206821798DF80B704FF47A7702AAFC
:100E60000423009700F080FB03B0F0BD2DE9F047AC
:100E700082B00A788AB382464E1E4FF47A780DF11A
:100E8000040900BF11019AF80B3022F00F0001F1A4
:100E90000807002B14BF08301701451C05308DF8DA
:100EA000040001207C1C00F06FF9781D8DF806000D
:100EB00001208DF8055000F067F9DAF800009AF883
:100EC00004104A4604238DF80740CDF8008000F056
:100ED0004BFBB2780136002AD4D102B0BDE8F087CE
:100EE0002DE9F04F81B040F60004C4F2010400BFC8
:100EF0002046022100F06AFA0028F9D040F270087A
:100F0000C2F20008D8F8200000214162416A272976
:100F100008D8416A272905D8416A272902D8416A99
:100F20002829F3D32046022100F050FA814600BF61
:100F30002046022100F04AFA0028F9D12046022179
:100F400000F044FA0028F9D0D8F8200000214162CE
:100F5000416A272908D8416A272905D8416A2729E3
:100F600002D8416A2829F3D32046022100F02EFA44
:100F7000009000BF2046022100F028FA0028F9D195
:100F80002046022100F022FA0028F9D0D8F82000EB
:100F900000214162416A272908D8416A272905D8DA
:100FA000416A272902D8416A2829F3D32046022121
:100FB00000F00CFA824600BF2046022100F006FA3B
:100FC0000028F9D12046022100F000FA0028F9D0CB
:100FD000D8F8200000214162416A272908D8416AD7
:100FE000272905D8416A272902D8416A2829F3D33D
:100FF0002046022100F0EAF9834600BF2046022184
:1010000000F0E4F90028F9D12046022100F0DEF9D1
:101010000028F9D0D8F8200000214162416A272930
:1010200008D8416A272905D8416A272902D8416A88
:101030002829F3D32046022100F0C8F9054600BF55
:101040002046022100F0C2F90028F9D120460221F1
:1010500000F0BCF90028F9D0D8F820000021416246
:10106000416A272908D8416A272905D8416A2729D2
:1010700002D8416A2829F3D32046022100F0A6F9BC
:10108000074600BF2046022100F0A0F90028F9D150
:101090002046022100F09AF90028F9D0D8F8200063
:1010A00000214162416A272908D8416A272905D8C9
:1010B000416A272902D8416A2829F3D32046022110
:1010C00000F084F9064600BF2046022100F07EF9B8
:1010D0000028F9D12046022100F078F90028F9D043
:1010E000D8F8200000214162416A272908D8416AC6
:1010F000272905D8416A272902D8416A2829F3D32C
:101100002046022100F062F9804600BF20460221FD
:1011100000F05CF90028F9D1B8F1000F18BF4FF0CA
:101120000108002E18BF0126002F6FF03F0018BFE6
:101130000127B9F1000F18BF4FF0010908BF402087
:101140000099002908BF4FEAC910BAF1000F18BF73
:101150004FF0010A40EA4A10BBF1000F18BF4FF0F0
:10116000010B40EA0B10002D18BF012540EAC50015
:1011700040EA870040EA460040EA0800C0B201B0F9
:10118000BDE8F08F70470000B0B5044600F02AF9C2
:10119000054640F20000C2F200000078611C18BF52
:1011A000044400BF00F01EF9401BA042FAD3B0BDBA
:1011B0002DE9F04F82B00E68002E00F0038141F25D
:1011C0000042C4F20102042340F2004E904208BFE4
:1011D00003234FF6FF7CC4F2010E00930024012389
:1011E000C1F2100C4FF0000A4FF0000949E000BFB7
:1011F000012704F00C030F229A402BEA020207FA9F
:1012000003F34FEA9A051A4346F82520D1F804B0B3
:1012100040F20C455FEACB22DEF8082054BF22EAF8
:10122000080242EA0802C4F20105CEF808202A6842
:101230005FEA8B2354BF22EA080242EA08022A60CE
:101240005FEA8B33DEF8042054BF22EA080242EA48
:1012500008025FEACB33CEF80420DEF800204FF01E
:10126000010354BF22EA080242EA0802CEF8002035
:101270000E680AF1010A36FA0AF204F1040400F0D9
:10128000A18003FA0AF816EA080FF1D04E68664505
:1012900012DC122E56D8DFE806F0350B45495555BD
:1012A00055555555555555555555554D510000BF3A
:1012B000D1F80C9046E000BF4FF6FF72C1F2210258
:1012C00096420FDC0022C1F2110296421AD000228F
:1012D000C1F21202964215D00022C1F221029642BA
:1012E00010D02FE00022C1F2220296420AD0002242
:1012F000C1F23102964205D00022C1F2320296427A
:1013000020D100BF8A684AB1012A14BFC0F81480F6
:10131000C0F810804FF0080914E000BF4FF0040936
:1013200010E000BFCA6802F108090BE04FF00009A5
:1013300008E000BFCA6802F1040903E0CA6802F1CC
:101340000C0900BF22460646BAF1080F24BF203A16
:10135000043637680F25954027EA050509FA02F299
:101360002A433260CA79D2067FF582AF41F2180370
:10137000C4F202031A68AEF57E7642F001021A60EA
:101380001A6802F001020192019A2AF0030256F84B
:1013900002B040F60002C4F20102904210D040F6C2
:1013A0000042C4F2010290423FF422AF41F2000237
:1013B000C4F20102009F904208BF022719E700BF54
:1013C000002716E702B0BDE8F08F000080680840F3
:1013D00018BF012070470000002A08BF09040161FE
:1013E0007047000040F27410C2F2000000687047BD
:1013F00070B5B8B3044690F83D0028B9002084F8D1
:101400003C00204600F09AF9242084F83D00206832
:10141000016821F001010160016841F400410160AF
:10142000016821F40041016000F03EFB48F2804178
:10143000C0F21E0140F60013D4F804E088424FF0D9
:101440000001C0F23D0348F2A16C4FF0000238BF2A
:1014500001219842C0F2010C38BF0122E64538BF95
:101460000A460AB1012070BD4DF68361C4F21B31FA
:10147000A0FB01122168950C4B684FF4967623F07F
:101480003F0343EA9243754344F6D3564B60C1F29F
:1014900062060B6AA5FB0656B50923F03F03E64535
:1014A00038BF950C6A1C1A430A62CA6948F2A066E2
:1014B0004CF6FF73C0F20106B64522EA03020BD8D0
:1014C00001384FEA4E03B0FBF3F001306FF31F30E9
:1014D000042898BF04201EE0A368013863B11923D3
:1014E0000EFB03F3B0FBF3F001306FF31F3078B164
:1014F00000F5804008E000BF0EEB4E03B0FBF3F0B8
:1015000001306FF31F3028B100F5004003E000BF49
:10151000012000E001201043C8610868D4E90723D6
:1015200020F0C000104318430860886848F2FF327A
:1015300004F10C0690434CCE18431043A569886013
:10154000C86820F0FF0030432843C860086840F0B6
:101550000100086000202021206484F83D102063F1
:1015600084F83E0070BD00002DE9F04383B01E46B4
:10157000174689460446FFF735FF94F83D102029A9
:1015800020D10546206800BF8169890716D5FFF77D
:1015900029FF411B20681A29F6D381698907F3D5F1
:1015A00000202021206384F83D1084F83E00216C47
:1015B00041F02001216484F83C0003E094F83C10E1
:1015C000012903D1022003B0BDE8F083012184F892
:1015D0003C100168C90703D1016841F001010160B5
:1015E000016840F2020821F400610160212184F8C1
:1015F0003D10102184F83E10002121646762668549
:10160000618DC0F201082185A8F10211E162E16A51
:101610000A9E11F5803F18BF01291DD1016841F4D0
:101620008071016020464FF0011100223346009581
:1016300000F0F8FF50B120680068C00544BF4FF4C7
:1016400000702064012003B0BDE8F0832069B0F58C
:10165000804F07D1FE2015E00829DFD0216B122929
:10166000DCD0DFE7062000EAD9102168F0300861FD
:1016700008F10601204632462B4601F0BDF800284D
:10168000E0D1FF20216800EA0900086120464146B8
:1016900032462B4601F0B0F80028D3D1002002904A
:1016A00020684169029180690290029806E000BFBB
:1016B000204631462A4600F055FF18BB208D68B3FE
:1016C000204631462A4601F007F9D8B9606A2168F8
:1016D000024612F8013B0B616262628D013A62853B
:1016E000228D531E23854F697F07E1D51B04DFD070
:1016F000437802300B616062608D01386085901E16
:101700002085D5E7206C04289CD12068016841F42D
:1017100000710160012003B0BDE8F083206801681A
:1017200041F400710160202084F83D00002084F81D
:101730003E0084F83C0003B0BDE8F08310B586B0ED
:1017400045F200410068C4F2000100228842049280
:1017500002D006B010BD00BF41F21804C4F202046A
:10176000206840F008002060206800F00800019028
:101770000198C0200290122003900320059001F5EB
:10178000384002A9FFF714FD606840F40010606063
:10179000606800F400100190019806B010BD0000D0
:1017A00040F2000040F27411C2F20000C2F20001E7
:1017B00000780A68104408607047000080B542F263
:1017C0000000C4F20200016841F010010160032032
:1017D00000F07AF80F2000F005F800F027F800205C
:1017E00080BD000070B540F20006C2F2000640F273
:1017F00008013278C2F200014FF47A730968B3FB32
:10180000F2F20446B1FBF2F1084600F04FFB0F2C58
:101810004FF0010508D838B94FF0FF3021460022BB
:10182000002500F025F87460284670BD82B041F2B2
:101830001800C4F202000168022241F001010160B7
:10184000016801F0010101910199416841F0805165
:101850004160406800F08050009000980420C4F27D
:101860000100016862F31A61016002B07047000074
:1018700010B54EF60C5CCEF2000CDCF80030C3F371
:10188000022E8EF00704042C28BF0424BEF10303AB
:101890004FF0FF3E0EFA04F438BF0023A1439940F5
:1018A0000EFA03F39A43114300F00F0200F1604374
:1018B0000901043A03F564436244002848BF02F179
:1018C0000C03197010BD00004EF60C51CEF2000151
:1018D0000A684FF6FF031A4060F30A2242F0806064
:1018E00040F0FD70086070472DE9F04381B000289A
:1018F00000F0858042F20008C4F202080446D8F8DD
:1019000000000D4600F0070088420CD2D8F8000015
:1019100020F007002843C8F80000D8F8000000F0C5
:101920000700A8426BD1206841F204098107C4F284
:10193000020917D5410705D5D9F8001041F4E06137
:10194000C9F80010010705D5D9F8001041F460511D
:10195000C9F80010D9F80010A26821F0F001114375
:10196000C9F80010C00741D1D8F8000000F0070006
:10197000A8420CD9D8F8000020F007002843C8F886
:101980000000D8F8000000F00700A84237D1206816
:10199000410707D5D9F80010E26821F4E06111434E
:1019A000C9F80010000708D5D9F80000216920F413
:1019B000605040EAC100C9F80000D9F8002002F0E8
:1019C0000C00082841F20020C0F27A0050D143F206
:1019D0004E73C2F38341C0F60003595CD2033BD47B
:1019E00040F60010C0F23D00484341E06068022824
:1019F0000AD001282AD159F8041C890308D40120EF
:101A000001B0BDE8F08300BF59F8041C8901F6D588
:101A1000D9F8001021F003010843C9F80000FFF7CE
:101A2000E1FC064641F28837D9F80000616800F011
:101A30000C00B0EB810F97D0FFF7D4FC801BB842AD
:101A4000F2D9032001B0BDE8F08300BF59F8041CAF
:101A50008907D4D5DCE700BFD9F8002043F24C73E6
:101A6000C2F34042C0F600039A5C4843B0FBF2F078
:101A7000D9F8001043F23472C1F30311C0F600022A
:101A8000515C40F2080220FA01F140F20400C2F277
:101A900000000068C2F200021160FFF7A3FE002000
:101AA00001B0BDE8F083000040F2080041F20401FB
:101AB000C2F20000C4F202010068096843F24472F5
:101AC000C1F30221C0F60002515CC840704700001B
:101AD00040F2080041F20401C2F20000C4F2020127
:101AE0000068096843F24472C1F3C221C0F60002E3
:101AF000515CC840704700002DE9F04182B00028D9
:101B000068D00446007841F20006C007C4F202061D
:101B100025D0706800F00C0004281BD0706800F01D
:101B20000C00082802D17068C00313D46068002834
:101B300000F06881B0F5A02F00F07C81B0F5803F07
:101B400000F07C81306820F480303060306820F410
:101B5000802076E13068800301D56068D0B32078BA
:101B6000800718D5706810F00C0F07D0706800F06F
:101B70000C0008286ED17068C0036BD430688007F1
:101B800002D52069012825D13068616920F0F8006C
:101B900040EAC1003060207800071FD42078400759
:101BA00032D4E56995B1706800F00C00082840F067
:101BB0008F80012D0ED07068216A00F480328A4235
:101BC00008D1616A00F47010884203D1002002B08D
:101BD000BDE8F081012002B0BDE8F081A0690028D5
:101BE00062D00020C4F242200121C0F88014FFF727
:101BF000F9FB0546706A800700F18C80FFF7F2FB65
:101C0000401B0228F6D92AE1F06910F0805808D16B
:101C1000F06940F08050F061F06900F08050009071
:101C2000009847F20007C4F200073868C00529D4BD
:101C3000386840F480703860FFF7D4FB054600BF79
:101C40003868C0051ED4FFF7CDFB401B6428F7D9C8
:101C500005E100BF2069002840F20000C4F24220E4
:101C600000F0828001210160FFF7BCFB054600BF48
:101C7000306880073FF588AFFFF7B4FB401B0228B0
:101C8000F6D9ECE0E068002800F08080052800F03C
:101C90009780012800F09880306A20F001003062BF
:101CA000306A20F0040092E00020C4F242200021BB
:101CB000C0F88014FFF796FB054600BF706A8007E6
:101CC0007FF56CAFFFF78EFB401B0228F6D9C6E00C
:101CD0000027C4F2422700203866FFF783FB022D5D
:101CE00005460BD13068800140F1BE80FFF77AFBDA
:101CF000401B02284FF00300F4D968E730688001E8
:101D00007FF564AFFFF76EFB401B02284FF0030026
:101D1000F4D95CE740F20800C2F20000006844F623
:101D2000D351C1F26201A0FB0101480A019000BF3A
:101D300000BF0198411E002801913FF42FAF00BF62
:101D40000198411E002801913FF428AF00BF01987F
:101D5000411E002801913FF421AF00BF0198411EB0
:101D600000280191E4D119E700210160FFF73AFB57
:101D7000054600BF306880077FF50DAFFFF732FBE7
:101D8000401B02284FF00300F4D920E7306A20F00E
:101D900001003062306A20F004003062FFF722FB5D
:101DA000054641F2883700BF306A800720D5FFF72B
:101DB00019FB401BB8424FF00300F5D907E700BFFD
:101DC000306A40F004003062306A40F00100306256
:101DD000FFF708FB054641F2883700BF306A8007ED
:101DE00006D4FFF7FFFA401BB842F7D937E000BF2F
:101DF000B8F1000F7FF4D5AEF06920F08050F061AB
:101E0000CFE600BF306820F480303060306820F4C6
:101E100080203060FFF7E6FA054600BF3068800397
:101E20007FF59DAEFFF7DEFA401B64284FF00300FC
:101E3000F4D9CCE6306840F480203060306840F45B
:101E400080303060FFF7CEFA054600BF306880036F
:101E50003FF585AEFFF7C6FA401B6428F6D903208C
:101E600002B0BDE8F08100BF206AB0F5803F05D127
:101E70007168A26821F40031114371607168626A6F
:101E800021F4741111430843706001203866FFF794
:101E9000A9FA0446306880013FF598AEFFF7A2FA30
:101EA000001B02284FF00300F4D990E6411E0020E9
:101EB000B0EB116F1CBF012070474EF21002CEF242
:101EC000000251604EF62351CEF20001F0230B7058
:101ED000072190601160704710B590F83C20012AEE
:101EE0004FF0020233D080F83D200268D2F804E0BF
:101EF000D2F808C00C682EF07003234340F2FF7440
:101F0000C4F20004A24253600ADCB2F1804F13D045
:101F100040F20043C4F200039A420DD011E000BF2A
:101F200042F60043C4F201039A4205D040F6000392
:101F3000C4F200039A4204D149682CF0800319438B
:101F400091600121002280F83D1080F83C2010466D
:101F500010BD0000002804BF0120704710B50446E2
:101F600090F83D0028B9002084F83C00204600F09D
:101F70006FF8022084F83D00206840F2FF73026889
:101F8000C4F2000342F6004C9842C4F2010C15DC86
:101F9000B0F1804F1AD040F20041C4F200018842F3
:101FA00014D0984218DCB0F1804F1DD040F20041AF
:101FB000C4F20001884217D01AE000BF604505D086
:101FC00040F60001C4F200018842EAD1A16822F083
:101FD00070020A439842E6DD604505D040F60001F4
:101FE000C4F20001884203D1216922F440720A43FD
:101FF000A36922F08001D4F804E0E2681943604547
:102000000160C262C0F828E002D16169CCF83010EA
:10201000012141610269D20703D0026922F0010265
:102020000261002084F8461084F83E1084F83F10C6
:1020300084F8401084F8411084F8421084F843106A
:1020400084F8441084F8451084F83D1010BD000059
:1020500081B0006840F60001C4F20001884201D05E
:1020600001B0704741F21C00C4F20200016841F067
:1020700004010160006800F004000090009801B0C5
:102080007047000090F83D1001291CBF01207047E7
:10209000022180F83D10006840F2FF71C4F2000197
:1020A000884209DCB0F1804F12D040F20041C4F206
:1020B000000188420CD012E042F60041C4F2010156
:1020C000884205D040F60001C4F20001884206D1E2
:1020D000816801F00701062904BF002070470168EC
:1020E00041F00101016000207047000080B590F8C8
:1020F0003C20012A4FF0020200F0C28080F83D200F
:10210000D0F800C04FF67772DCF8083023EA0202FC
:10211000CCF808200B684F2B28DC1F2B44DD202B2C
:1021200045D0302B43D0402B40F0AC80D1F804E0B8
:10213000C968DCF82030DCF8202022F00102CCF85D
:102140002020DCF8182022F0F00242EA011123F0EE
:102150000A0242EA0E02CCF81810CCF82020DCF873
:10216000081041F0470121F0300180E06F2B27DD9E
:10217000B3F5005F48D0B3F5805F7AD0702B40F0A4
:102180008180D1E901E3C968DCF8082043EA0E0345
:1021900022F47F4243EA01211143CCF80810DCF815
:1021A000081041F0770162E00BB1102B6AD1DCF826
:1021B000081021F07001194341F0070157E000BFFA
:1021C000502B35D0602B5DD1D1F804E0C968DCF824
:1021D0002030DCF8202022F01002CCF82020DCF89F
:1021E000182022F4704242EA013123F0A00242EAB0
:1021F0000E12CCF81810CCF82020DCF8081041F0B2
:10220000670121F0100132E0D1E901E3C968DCF88F
:10221000082043EA0E0322F47F4243EA01211143DE
:10222000CCF80810DCF8081041F480411FE000BF32
:10223000D1F804E0C968DCF82030DCF8202022F076
:102240000102CCF82020DCF8182022F0F00242EA4B
:10225000011123F00A0242EA0E02CCF81810CCF861
:102260002020DCF8081041F0570121F02001CCF8C3
:1022700008100022012180F83D10002180F83C1058
:10228000104680BD0122F5E7002804BF01207047F9
:1022900010B5044690F8410028B9002084F84000A9
:1022A000204600F063F8242084F841002068D4E937
:1022B0000212C36823F40053C360036923F440533C
:1022C0001A430261D4E904231143C268194341F25D
:1022D0000C639A431143C1604169A26921F44071C2
:1022E000114343F60002C4F201029042416103D05F
:1022F000FFF7DAFB02E000BFFFF7EAFB6268192193
:1023000048439100B0FBF1F048F21F51C5F2EB11C8
:10231000A0FB01235A094FF69C73C0F6FF7302FB22
:102320000300322303EB0010A0FB0101F02303EABA
:102330005113206803EB0212C1F343111144816071
:10234000016921F490410161416921F02A01416153
:10235000C16841F40051C16000202021606484F80C
:10236000411084F84210606310BD000070B586B063
:1023700040F60004C4F20104006804F54051002650
:102380008842049602D006B070BD00BF41F218002A
:10239000C4F20200016802AD41F4804101600168AD
:1023A00001F4804101910199016841F0040101604B
:1023B0000068294600F00400019001984FF4007075
:1023C000029002200390032005902046FEF7F0FEC5
:1023D0004FF48060CDE90206204629460496FEF7B8
:1023E000E7FE06B070BD00002DE9F041044690F80C
:1023F000410020281CBF0220BDE8F0810D460029C5
:102400004FF0010000F0AA801646002A08BFBDE880
:10241000F081002060642120984684F84100FEF796
:10242000E1FFA684E684A1680646B1F5805F02D18B
:102430002069002862D02F460025E08C002861D05A
:1024400018F1010018D0B8F1000F37D1216808E069
:1024500017F8010B4860E08C0138E084E08C00281C
:1024600051D00868000673D5002FF1D135F8020B62
:1024700000276FF35F20EDE7216802E0086800069F
:1024800009D40868000606D4086800065CBF08681E
:102490005FEA0060F2D51FB117F8010B05E000BF3D
:1024A00035F8020B00276FF35F204860E08C01389D
:1024B000E084E08C0028E4D125E000BF216800BF63
:1024C0000868000608D4FEF78DFF801B404541D800
:1024D0002168C868F4E700BF17B117F8010B04E0E2
:1024E00035F8020B00276FF35F204860E08C01385D
:1024F000E084E08C0028E3D105E000BF0027E08CF9
:1025000000289DD12168086840061FD4B8F1000F4B
:102510001ED018F101000FD10868400616D40868D3
:10252000400613D40868400610D4086840064FF0EF
:102530000000F1D50FE000BFFEF754FF801B4045BF
:1025400008D82068C16800684006F5D5002002E080
:10255000FEF748FF0320202184F84110BDE8F081F8
:10256000FEE7000070B50368044653F8140F4007F7
:1025700011D40E46481C29D086BB00BF1868400500
:1025800027D4FEF72FFF236853F8140F400739D5DF
:1025900018684007F2D5002070BD00BF18684007DA
:1025A000F9D41868400514D418684007F3D41868A3
:1025B00040050ED418684007EDD41868400508D4CB
:1025C000186840074FF0000048BF70BD186840050C
:1025D000E4D56FF480601860042014E0154603E031
:1025E00053F8140F4007D6D418684005F1D4FEF70D
:1025F000F9FE401B2368B042F2D958694007EFD476
:10260000202000E0202000212022216384F83D20AA
:1026100084F83E10226C10432064012084F83C10A2
:1026200070BD00002DE9F041054600681E461446C5
:1026300001F47F0201338FB242D0DDF81880B2F589
:10264000803F40F0878040693840C01BB0FA80F07E
:102650004009A04240F0C8804EB924E040693840AB
:10266000C01BB0FA80F04009A04240F0BD80FEF7E8
:10267000B9FEA0EB08012868B142EFD941693940A1
:10268000C91BB1FA81F14909A142E7D19BE000BF22
:1026900040693840C01BB0FA80F04009A0424FF0BA
:1026A000000040F0A680FEF79DFE28684169394091
:1026B000C91BB1FA81F14909A142E9D183E000BF08
:1026C000B2F5803F24D100BF41693940C91BB1FA3E
:1026D00081F14909A14240F0878041693940C91B15
:1026E000B1FA81F14909A14240F07E804169394047
:1026F000C91BB1FA81F14909A14275D1416939403B
:10270000C91BB1FA81F14909A142DDD06CE000BFDB
:1027100081693940C91BB1FA81F14909A14263D1EC
:1027200081693940C91BB1FA81F14909A1425BD1E4
:1027300081693940C91BB1FA81F14909A14253D1DC
:1027400081693940C91BB1FA81F14909A142DFD041
:102750004AE000BF80693840C01BB0FA80F04009F1
:10276000A04241D146B923E080693840C01BB0FA8D
:1027700080F04009A0423BD1FEF734FEA0EB0801F7
:102780002868B142F0D981693940C91BB1FA81F199
:102790004909A142E8D116E080693840C01BB0FA6F
:1027A00080F04009A0424FF0000018BFBDE8F08162
:1027B000FEF718FE286881693940C91BB1FA81F11A
:1027C0004909A142E8D100202021286385F83D1065
:1027D00085F83E00296C41F02001296485F83C0011
:1027E0000120BDE8F08100BF0020BDE8F08100BFFE
:1027F0000020BDE8F0810000F0B581B0044600681B
:102800001D4643698FB203EA0701B94202D1002095
:1028100001B0F0BD41691646013201F4806125D056
:10282000002940D1CEB100BFFEF7DCFD411B20687E
:10283000B14203D941693940B9424BD1416939406C
:10284000B942E4D041694905EED52CE041693940EF
:10285000B942DCD04169490525D4FEF7C3FD2068A3
:1028600041693940B942F1D0202024E0D9B9416909
:102870003940B942CBD04169490514D44169394046
:10288000B942C4D0416949050DD441693940B942C2
:10289000BDD04169490506D441693940B942B6D035
:1028A00041694905E3D5016841F4007101606FF4A5
:1028B00080614161042000212022216384F83D20B1
:1028C00084F83E10226C1043206484F83C100120F0
:1028D00001B0F0BD2020EEE770B50368044653F860
:1028E000140F000611D40E46481C29D086BB00BF29
:1028F0001868400527D4FEF775FD236853F8140FB8
:10290000000639D518680006F2D5002070BD00BF5A
:1029100018680006F9D41868400514D41868000631
:10292000F3D4186840050ED418680006EDD4186872
:10293000400508D4186800064FF0000048BF70BD7D
:1029400018684005E4D56FF480601860042014E036
:10295000154603E053F8140F0006D6D41868400556
:10296000F1D4FEF73FFD401B2368B042F2D958690D
:102970000006EFD4202000E0202000212022216347
:1029800084F83D2084F83E10226C1043206401201E
:1029900084F83C1070BD0000FEE70000FEE7000078
:1029A0007047000070470000FEF7FABE7047000055
:1029B000FEE7000094B0FEF701FF00240120CDE9FE
:1029C0000F44CDE90D440A900E904FF4E0104FF4FF
:1029D0008031022513900AA8CDE90B14CDE91151DD
:1029E000FFF78AF820B1EFF3108072B6FEE700BF60
:1029F0000F20CDE904054FF48060CDE9070404A859
:102A000002210694FEF770FF20B1EFF3108072B63A
:102A1000FEE700BF41F21800C4F20200016840F670
:102A2000000941F0200101600168C4F2010901F0D0
:102A300020010A910A990168002241F00401016015
:102A40000168022601F004010A910A990168002533
:102A500041F0080101600068022100F008000A90BE
:102A60000A984846FEF7B8FC01200BA961C10AA9E3
:102A700048460A96FEF79CFB40F2D800A9F534417F
:102A8000C2F2000048F2A0624FF48043C0F201029B
:102A900080E82600C0E90353C0E90555C0E90755A1
:102AA000FEF7A6FC20B1EFF3108072B6FEE700BF80
:102AB00040F27004C2F20004A9F58031204640F8CB
:102AC000201F47214FF6FE720D95CDE90B55CDE93C
:102AD0000455C0E90115C0E903258561FFF73AFAFD
:102AE00020B1EFF3108072B6FEE700BF4FF48050C4
:102AF00004F120050A900AA92846FFF7F7FA28B141
:102B0000EFF3108072B600BFFEE700BF04A92846AD
:102B1000FFF7E2F920B1EFF3108072B6FEE700BFD5
:102B200040F22C1009F54051C2F200004FF0000AAB
:102B30000C234FF4E13280E80604C0E903AAC0E99F
:102B4000053AC0F81CA0FFF79FFB28B1EFF31080F7
:102B500072B600BFFEE700BF2846FFF793FA04F104
:102B6000140540F2D8010227C2F2000128464E2285
:102B700010230097FDF7A2FF7EA12846FEF776F905
:102B80004FF47A70FEF700FB28460395FDF76AFFC5
:102B90000DF12808039DE668284600210022CDF8A3
:102BA00038A0CDE90CAACDE90AAAFEF7EFF8304625
:102BB00000F0EEFC43F25E77C0F6000702460B46DB
:102BC00040463946FDF70CFB28464146FEF74EF9D4
:102BD00028464321FEF720F92669284600210122D4
:102BE000CDF838A0CDE90CAACDE90AAAFEF7CEF8B7
:102BF000304600F0CDFC02460B4640463946FDF714
:102C0000EFFA28464146FEF731F928462521FEF71E
:102C100003F9D4E9030600F0BBFC45468046304684
:102C20008A4600F0B5FC0DF1100B0E460090584698
:102C300054A142465346A846012502274FF0000AF8
:102C40000196FDF7CDFA40F22C10C2F20000594671
:102C500014224FF47A73FFF7C7FB48460221012282
:102C6000FEF7BAFB4FF47A70FEF78EFA48464146FB
:102C7000CDE90A75CDE90CA7FEF79AFA484602217C
:102C80000022FEF7A9FB1220FEF77EFA4846022139
:102C90000122FEF7A1FB206AC0F824A0416A132993
:102CA00008D8416A132905D8416A132902D8416A14
:102CB0001429F3D348464146CDE90A7ACDE90C5AA6
:102CC000FEF776FA206AC0F824A000BF416A2729DF
:102CD00008D8416A272905D8416A272902D8416ABC
:102CE0002829F3D348460221FEF770FB10B10026D5
:102CF0001AE000BF206AC0F824A000BF416A4F2933
:102D000008D8416A4F2905D8416A4F2902D8416A3B
:102D10005029F3D348460221FEF758FB012600282C
:102D200008BF4FF0FF3600BF48460221FEF74EFBBA
:102D30000028F9D12670FEF7D3F86070FEF7D0F8BE
:102D4000A070FEF7CDF8E070FEF7CAF82071FEF72C
:102D5000C7F8E080E07866782081668100F044FC66
:102D6000E060304600F040FC20614FF49660FEF7D2
:102D70000BFA0FE7494E495449414C495A494E47CD
:102D80003E3E3E00252E32663B252E326600000078
:102D90005FEA400C08BF91F0000F4FEA8C234FEA26
:102DA000C12243EA51514FEA1C5018BF00F5F040D0
:102DB0004FEA300018BF41F000415FEA6C5C00F060
:102DC0002980BCF1FF3F08BF40F080407047130CE2
:102DD00006BF12044FF0100C4FF0000C130E04BF8E
:102DE00012020CF1080C130F04BF12010CF1040CB9
:102DF000930F04BF92000CF1020CD30F04BF5200DA
:102E00000CF1010C11464FF00002A0F11F00A0EBE5
:102E10000C00704711F0004F08BF704731F00041BF
:102E20003FF4D5AF0B0C06BF09044FF0100C4FF068
:102E3000000C0B0E04BF09020CF1080C0B0F04BFB1
:102E400009010CF1040C8B0F04BF89000CF1020C7A
:102E5000CB0F04BF49000CF1010CCCF1200322FA86
:102E600003F341EA030102FA0CF2A0EB0C0000F1BB
:102E70000100704723F07F4720F07F4C80EA030079
:102E800000F00040ACEB070303F57C5303F1FF03B4
:102E90002DE9804909B44FEA144324EA03484FEA74
:102EA000154B25EA0B4E0FF2042606EB13273E784E
:102EB00003FB0667C7F5000707FB06F64FEAD64691
:102EC00006F102064FEA543707FB066CCCF1005CB2
:102ED0004FEA1C472CEA074C0CFB06F507FB06F4EF
:102EE00004EB15464FEA961649085FEA320234BFF2
:102EF00000204FF000404FEAD13706FB07FC4FEAB5
:102F00001C4C0CFB0BF7D21B03FB0CF761EB07010E
:102F10000CFB0EF7B0EB074072EB17420CFB08F707
:102F200034BFA2EB0742B2EB074261EB17414FEA15
:102F30000C444FEA910706FB07FC4FEA1C4C0CFBC4
:102F40000BF7B0EBC74072EB573203FB0CF734BF03
:102F5000A2EBC742B2EBC74261EB57310CFB0EF755
:102F6000B0EBC70072EB57720CFB08F734BFA2EB53
:102F7000C702B2EBC70261EB57714FEA816141EAC8
:102F800092114FEA826242EA90124FEA806004EBAB
:102F9000CC04039F4FEAD13706FB07FC4FEA1C4CD9
:102FA0000CFB0BF7D21B03FB0CF761EB07010CFBCF
:102FB0000EF7B0EB074072EB17420CFB08F734BF7B
:102FC000A2EB0742B2EB074261EB17414FEA8C5587
:102FD00004EB9C244FEA910706FB07FC4FEA1C4CCC
:102FE0000CFB0BF7B0EBC74072EB573203FB0CF74F
:102FF00034BFA2EBC742B2EBC74261EB57310CFBC7
:103000000EF7B0EBC70072EB57720CFB08F734BF3A
:10301000A2EBC702B2EBC70261EB57714FEA8161C5
:1030200041EA92114FEA826242EA90124FEA8060CE
:1030300015EB4C2544F100044FEAD13706FB07FCA1
:103040004FEA1C4C0CFB0BF7D21B03FB0CF761EB9C
:1030500007010CFB0EF7B0EB074072EB17420CFBBD
:1030600008F734BFA2EB0742B2EB074261EB17410E
:103070004FEA813141EA92414FEA823242EA90427C
:103080004FEA80304FEA0C7615EB1C1544F1000432
:1030900048EA03434EEA0B484FF0000EB2EB080C2F
:1030A00071EB030724BF624639464EEB0E0E4FF01C
:1030B000000B0018524149414BEB0B0BB2EB080CD3
:1030C00071EB03077BF1000B24BF624639464EEBE0
:1030D0000E0E4FF0000B0018524149414BEB0B0B09
:1030E000B2EB080C71EB03077BF1000B24BF6246C7
:1030F00039464EEB0E0E51EA020718BF46F00106A4
:1031000016EB0E7655F1000254F1000103D5BDE82F
:103110008901BDE80088BDE88901BDE80048B6190D
:10312000524141EB0101A3F10103704780807F7E92
:103130007D7C7B7A7978777676757473727171702D
:103140006F6E6E6D6C6C6B6A6A69686867666665DF
:103150006464636362616160605F5F5E5E5D5D5C6D
:103160005C5B5B5A5A5959585857575656555555DE
:103170005454535352525251515050504F4F4F4E3E
:103180004E4D4D4D4C4C4C4B4B4B4A4A4A4949498C
:1031900048484847474747464646454545444444CE
:1031A0004443434343424242424141419C46002BF7
:1031B00030D477002BD04FEA37071CB503B44FF05B
:1031C00010004FF01001BAF1000F06D0BCF1000F53
:1031D000DCBF40F0080040F008014FF000000FBCD9
:1031E000BDE810400BF1010BBBF1010F08BF5FEA16
:1031F000170722BF12F1010211F101014FF0004146
:1032000043F1000300F0004043EA00007047F9D3A7
:103210005708D0E746EA06464FEA164613F1400F34
:103220001FDD13F1200FDFBF16430A4600212033B4
:103230005B42BED0C3F1200746EA06464FEA164677
:1032400002FA07F746EA070622FA03F2C3F120075B
:1032500001FA07F742EA070221FA03F14FF00003EF
:10326000A7E746EA020646EA06464FEA164646EA57
:103270000106BCBF46EA0646360C4FF000034FF08D
:1032800000024FF0000194E72DE9804C70B49A469B
:10329000934691E8380007C831EA400C48BF34EA49
:1032A000430C03D5FFF7E6FDFFF780FFF0BCBDE858
:1032B000008C2DE9804C70B49A46934691E8380012
:1032C00007C810F0804F08BF13F0804F03D100F003
:1032D00005F8FFF76BFFF0BCBDE8008C20F07F47DE
:1032E00023F07F4C80EA030000F0004007EB0C0362
:1032F000A3F57C53A3F1FE0392F0000F00F0B3801E
:1033000095F0000F00F077802DE901494FEA114058
:1033100021EA00484FEA144624EA064700FB06FC6F
:1033200008FB06F607FB08F818EB06484CEB164CB2
:1033300000FB07F718EB07484CEB17404FEA124B1E
:1033400022EA0B4E4FEA154625EA06470BFB06FC20
:103350000EFB06F607FB0EFE1EEB064E4CEB164C64
:103360000BFB07F71EEB074E4CEB174B18EB0B084C
:1033700040F1000018EB0E0B58EB000840F1000084
:103380008F1A4FF000014FF000063CBFC943661B87
:1033900014BFB5EB040C00213CBFC943F61B4FEA38
:1033A000174427EA04454FEA1C472CEA074C04FB64
:1033B000076205FB07F70CFB05F616EB074642EB29
:1033C000174204FB0CFC16EB0C4642EB1C421BEBB9
:1033D000060658EB020241414EEA8E0E46EA9E0670
:1033E00001D5BDE80189B619524141EB0101A3F1B4
:1033F0000103BDE801894FEA144524EA05464FEA76
:10340000114721EA074C05FB07F406FB07F70CFB05
:1034100006F111EB074144EB174405FB0CFC11EBE3
:103420000C4144EB1C444FEA124722EA074C05FBCF
:1034300007F206FB07F70CFB06F616EB074642EB16
:10344000174205FB0CFC16EB0C4642EB1C456A18B8
:1034500054F1000148BF7047B619524141EB0101D8
:10346000A3F10103704795F0000F37D04FEA1142E6
:1034700021EA02464FEA144724EA074C02FB07F10F
:1034800006FB07F70CFB06F414EB074441EB17416E
:1034900002FB0CFC14EB0C4441EB1C414FEA1547BA
:1034A00025EA074C02FB07F506FB07F70CFB06F6BF
:1034B00016EB074645EB174502FB0CFC16EB0C46DA
:1034C00045EB1C42121951F1000148BF7047B61973
:1034D000524141EB0101A3F1010370474FEA14454A
:1034E00024EA05464FEA114721EA074C05FB07F19C
:1034F00006FB07F70CFB06F212EB074241EB174104
:1035000005FB0CFC12EB0C4251EB1C414FF000068A
:1035100048BF7047921841EB0101A3F101037047C6
:10352000490050EAC12018BF04204A0D18BF40F0DE
:10353000010040F2FF72B2EB515F08BF40F00200A1
:10354000012808BF0520704730380A2801D2012021
:10355000704700207047000010B500290AD0087895
:10356000002807D005487844FDF732FA002801D03A
:10357000002010BD0248784410BD00001E0200006B
:10358000160200000808A0F500114FEA310170474B
:1035900043004FEAD30C4FEA3C0C43401FBF4007A7
:1035A0000CF1605113F0FE4F70471CF0006F03D117
:1035B0000CF00041002070470CF0004343EA5070CB
:1035C00040EACC0010B500F022F800BF00000092E5
:1035D0004FEA0001FFF7D6BF4FF00041A1F50021EF
:1035E0004FF0000070470000B0FA80F310FA03F2C9
:1035F000C3F19D030AD0D90501EB1220530638BF51
:10360000704700F1010008BF20F0010070470EF183
:10361000020E2EF0030E5EF8044B244204D44FEA4F
:103620004102B2F17F4F11D84FEA4003B3F17F4F0F
:103630000CD80ED14FEAD07C0CEB4C0C0CF1020CE8
:10364000B2F17F4F08BF4CEBD17C04E04FF0080C87
:1036500001E04FEAD17C0CEB4C0324FA03F404F0B4
:103660000704B4F1040C06D20EEB840CBDE8104044
:103670004CF0010C6047DFE80CF0070802024FF045
:103680000040A0F5800010BD0846420018BFD2F1EE
:10369000807288BF00F0004010BDFCF717BF00002B
:1036A00002400000000000A00000000005400000F3
:1036B000000000C8000000000C4000000000409C1A
:1036C00000000000194000000020BCBE0000000007
:1036D00034400000BFC91B8E00000004B54000004C
:1036E000504BCFD06607E2CF010000006C410000D4
:1036F0003E8251AADFEEA73401000000D94200004B
:10370000DCB5A0E23A301F97FFFFFFFFB445000091
:10371000FD25A0C8E9A3C14FFFFFFFFFFF3F000049
:103720000000008000000000FF3F0000000000805B
:10373000000000000000000000000000010203047F
:103740000607080900000000010203040102020349
:103750000405060708090A0B0C0D0E0F1010252E84
:1037600032660000A03700080000002010000000B2
:1037700028010008B037000810000020680700008A
:10378000440100081C00000043000000F8FFFFFF98
:103790000C0000000E0000000F0000002E000000D2
:1037A000010000001000000000127A00000000007C
:04000005080000ED02
:00000001FF
